{
  "contracts/BetManager.sol": {
    "BetManager": {
      "abi": [
        {
          "inputs": [
            {
              "internalType": "address",
              "name": "_token",
              "type": "address"
            }
          ],
          "stateMutability": "nonpayable",
          "type": "constructor"
        },
        {
          "anonymous": false,
          "inputs": [
            {
              "indexed": false,
              "internalType": "bytes32",
              "name": "betId",
              "type": "bytes32"
            },
            {
              "indexed": false,
              "internalType": "address",
              "name": "uid",
              "type": "address"
            },
            {
              "indexed": false,
              "internalType": "uint256",
              "name": "reward",
              "type": "uint256"
            }
          ],
          "name": "claimRewardEvent",
          "type": "event"
        },
        {
          "anonymous": false,
          "inputs": [
            {
              "indexed": false,
              "internalType": "bytes32",
              "name": "matchId",
              "type": "bytes32"
            },
            {
              "indexed": false,
              "internalType": "bytes32",
              "name": "betId",
              "type": "bytes32"
            },
            {
              "indexed": false,
              "internalType": "address",
              "name": "uid",
              "type": "address"
            },
            {
              "indexed": false,
              "internalType": "enum IBetManager.BetOption",
              "name": "option",
              "type": "uint8"
            },
            {
              "indexed": false,
              "internalType": "uint256",
              "name": "amount",
              "type": "uint256"
            }
          ],
          "name": "creatBetEvent",
          "type": "event"
        },
        {
          "anonymous": false,
          "inputs": [
            {
              "indexed": false,
              "internalType": "bytes32",
              "name": "matchId",
              "type": "bytes32"
            },
            {
              "indexed": false,
              "internalType": "string",
              "name": "name",
              "type": "string"
            },
            {
              "indexed": false,
              "internalType": "string",
              "name": "competion",
              "type": "string"
            },
            {
              "indexed": false,
              "internalType": "uint32",
              "name": "startTime",
              "type": "uint32"
            }
          ],
          "name": "createMatchEvent",
          "type": "event"
        },
        {
          "anonymous": false,
          "inputs": [
            {
              "indexed": false,
              "internalType": "bytes32",
              "name": "matchId",
              "type": "bytes32"
            },
            {
              "indexed": false,
              "internalType": "enum IBetManager.MatchStatus",
              "name": "status",
              "type": "uint8"
            },
            {
              "indexed": false,
              "internalType": "enum IBetManager.BetOption",
              "name": "result",
              "type": "uint8"
            }
          ],
          "name": "updateMatchEvent",
          "type": "event"
        },
        {
          "inputs": [],
          "name": "admin",
          "outputs": [
            {
              "internalType": "address",
              "name": "",
              "type": "address"
            }
          ],
          "stateMutability": "view",
          "type": "function"
        },
        {
          "inputs": [
            {
              "internalType": "bytes32",
              "name": "betId",
              "type": "bytes32"
            }
          ],
          "name": "claimReward",
          "outputs": [],
          "stateMutability": "payable",
          "type": "function"
        },
        {
          "inputs": [
            {
              "internalType": "bytes32",
              "name": "matchId",
              "type": "bytes32"
            },
            {
              "internalType": "bytes32",
              "name": "betId",
              "type": "bytes32"
            },
            {
              "internalType": "enum IBetManager.BetOption",
              "name": "option",
              "type": "uint8"
            },
            {
              "internalType": "uint256",
              "name": "amount",
              "type": "uint256"
            }
          ],
          "name": "createBet",
          "outputs": [],
          "stateMutability": "payable",
          "type": "function"
        },
        {
          "inputs": [
            {
              "internalType": "bytes32",
              "name": "matchId",
              "type": "bytes32"
            },
            {
              "internalType": "string",
              "name": "name",
              "type": "string"
            },
            {
              "internalType": "string",
              "name": "competition",
              "type": "string"
            },
            {
              "internalType": "uint32",
              "name": "startTime",
              "type": "uint32"
            }
          ],
          "name": "createMatch",
          "outputs": [],
          "stateMutability": "payable",
          "type": "function"
        },
        {
          "inputs": [
            {
              "internalType": "bytes32",
              "name": "betId",
              "type": "bytes32"
            }
          ],
          "name": "getBet",
          "outputs": [
            {
              "components": [
                {
                  "internalType": "bytes32",
                  "name": "betId",
                  "type": "bytes32"
                },
                {
                  "internalType": "bytes32",
                  "name": "matchId",
                  "type": "bytes32"
                },
                {
                  "internalType": "address",
                  "name": "uid",
                  "type": "address"
                },
                {
                  "internalType": "enum IBetManager.BetOption",
                  "name": "option",
                  "type": "uint8"
                },
                {
                  "internalType": "uint256",
                  "name": "amount",
                  "type": "uint256"
                },
                {
                  "internalType": "bool",
                  "name": "exists",
                  "type": "bool"
                }
              ],
              "internalType": "struct IBetManager.Bet",
              "name": "",
              "type": "tuple"
            }
          ],
          "stateMutability": "view",
          "type": "function"
        },
        {
          "inputs": [
            {
              "internalType": "bytes32",
              "name": "matchId",
              "type": "bytes32"
            }
          ],
          "name": "getMatch",
          "outputs": [
            {
              "components": [
                {
                  "internalType": "string",
                  "name": "name",
                  "type": "string"
                },
                {
                  "internalType": "enum IBetManager.MatchStatus",
                  "name": "status",
                  "type": "uint8"
                },
                {
                  "internalType": "enum IBetManager.BetOption",
                  "name": "result",
                  "type": "uint8"
                },
                {
                  "internalType": "string",
                  "name": "competition",
                  "type": "string"
                },
                {
                  "internalType": "uint32",
                  "name": "startTime",
                  "type": "uint32"
                },
                {
                  "internalType": "bool",
                  "name": "exists",
                  "type": "bool"
                }
              ],
              "internalType": "struct IBetManager.Match",
              "name": "",
              "type": "tuple"
            }
          ],
          "stateMutability": "view",
          "type": "function"
        },
        {
          "inputs": [
            {
              "internalType": "bytes32",
              "name": "matchId",
              "type": "bytes32"
            }
          ],
          "name": "getOdds",
          "outputs": [
            {
              "internalType": "uint256",
              "name": "",
              "type": "uint256"
            },
            {
              "internalType": "uint256",
              "name": "",
              "type": "uint256"
            },
            {
              "internalType": "uint256",
              "name": "",
              "type": "uint256"
            }
          ],
          "stateMutability": "payable",
          "type": "function"
        },
        {
          "inputs": [
            {
              "internalType": "bytes32",
              "name": "",
              "type": "bytes32"
            }
          ],
          "name": "matches",
          "outputs": [
            {
              "internalType": "string",
              "name": "name",
              "type": "string"
            },
            {
              "internalType": "enum IBetManager.MatchStatus",
              "name": "status",
              "type": "uint8"
            },
            {
              "internalType": "enum IBetManager.BetOption",
              "name": "result",
              "type": "uint8"
            },
            {
              "internalType": "string",
              "name": "competition",
              "type": "string"
            },
            {
              "internalType": "uint32",
              "name": "startTime",
              "type": "uint32"
            },
            {
              "internalType": "bool",
              "name": "exists",
              "type": "bool"
            }
          ],
          "stateMutability": "view",
          "type": "function"
        },
        {
          "inputs": [
            {
              "internalType": "address",
              "name": "_admin",
              "type": "address"
            }
          ],
          "name": "setAdmin",
          "outputs": [],
          "stateMutability": "payable",
          "type": "function"
        },
        {
          "inputs": [
            {
              "internalType": "bytes32",
              "name": "matchId",
              "type": "bytes32"
            },
            {
              "internalType": "enum IBetManager.MatchStatus",
              "name": "status",
              "type": "uint8"
            },
            {
              "internalType": "enum IBetManager.BetOption",
              "name": "result",
              "type": "uint8"
            }
          ],
          "name": "updateMatch",
          "outputs": [],
          "stateMutability": "payable",
          "type": "function"
        }
      ],
      "evm": {
        "bytecode": {
          "linkReferences": {},
          "object": "60806040523480156200001157600080fd5b50604051620028673803806200286783398181016040528101906200003791906200012a565b33600260006101000a81548173ffffffffffffffffffffffffffffffffffffffff021916908373ffffffffffffffffffffffffffffffffffffffff16021790555080600460006101000a81548173ffffffffffffffffffffffffffffffffffffffff021916908373ffffffffffffffffffffffffffffffffffffffff160217905550506200015c565b600080fd5b600073ffffffffffffffffffffffffffffffffffffffff82169050919050565b6000620000f282620000c5565b9050919050565b6200010481620000e5565b81146200011057600080fd5b50565b6000815190506200012481620000f9565b92915050565b600060208284031215620001435762000142620000c0565b5b6000620001538482850162000113565b91505092915050565b6126fb806200016c6000396000f3fe6080604052600436106100915760003560e01c8063cad7622c11610059578063cad7622c14610169578063e8ceea2f14610185578063f5414023146101b7578063f851a440146101d3578063fcc6077d146101fe57610091565b806309d3bf13146100965780630a6dc6e0146100b257806337e8c09e146100ce578063704b6c021461010b5780639fe9ada314610127575b600080fd5b6100b060048036038101906100ab91906114d4565b61023b565b005b6100cc60048036038101906100c7919061155d565b6103e5565b005b3480156100da57600080fd5b506100f560048036038101906100f091906115c4565b610677565b604051610102919061175d565b60405180910390f35b610125600480360381019061012091906117a4565b61076d565b005b34801561013357600080fd5b5061014e600480360381019061014991906115c4565b610841565b604051610160969594939291906118e6565b60405180910390f35b610183600480360381019061017e9190611ab6565b6109c4565b005b61019f600480360381019061019a91906115c4565b610baa565b6040516101ae93929190611b64565b60405180910390f35b6101d160048036038101906101cc91906115c4565b610c98565b005b3480156101df57600080fd5b506101e8610ff0565b6040516101f59190611baa565b60405180910390f35b34801561020a57600080fd5b50610225600480360381019061022091906115c4565b611016565b6040516102329190611cbd565b60405180910390f35b600260009054906101000a900473ffffffffffffffffffffffffffffffffffffffff1673ffffffffffffffffffffffffffffffffffffffff163373ffffffffffffffffffffffffffffffffffffffff16146102cb576040517f08c379a00000000000000000000000000000000000000000000000000000000081526004016102c290611d2b565b60405180910390fd5b600115156003600085815260200190815260200160002060030160049054906101000a900460ff16151514610335576040517f08c379a000000000000000000000000000000000000000000000000000000000815260040161032c90611d97565b60405180910390fd5b6000600360008581526020019081526020016000209050828160010160006101000a81548160ff0219169083600281111561037357610372611641565b5b0217905550818160010160016101000a81548160ff0219169083600281111561039f5761039e611641565b5b02179055507faf4b0ff6d7b710fb8fcb44e1282c597db336f2afc306fc1c9593f984a1455deb8484846040516103d793929190611dc6565b60405180910390a150505050565b6003600085815260200190815260200160002060030160049054906101000a900460ff16610448576040517f08c379a000000000000000000000000000000000000000000000000000000000815260040161043f90611e49565b60405180910390fd5b6000600281111561045c5761045b611641565b5b6003600086815260200190815260200160002060010160009054906101000a900460ff16600281111561049257610491611641565b5b146104d2576040517f08c379a00000000000000000000000000000000000000000000000000000000081526004016104c990611eb5565b60405180910390fd5b60008111610515576040517f08c379a000000000000000000000000000000000000000000000000000000000815260040161050c90611f47565b60405180910390fd5b60008060008581526020019081526020016000209050818160030181905550848160010181905550838160000181905550828160020160146101000a81548160ff0219169083600281111561056d5761056c611641565b5b0217905550338160020160006101000a81548173ffffffffffffffffffffffffffffffffffffffff021916908373ffffffffffffffffffffffffffffffffffffffff16021790555060018160040160006101000a81548160ff021916908315150217905550816001600087815260200190815260200160002060008560028111156105fb576105fa611641565b5b600281111561060d5761060c611641565b5b8152602001908152602001600020600082825461062a9190611f96565b925050819055507fd6db1018188ec08413a9556eb1ee30461cf3940b134d72352febcd936a1e181d8585338686604051610668959493929190611fca565b60405180910390a15050505050565b61067f611378565b6000808381526020019081526020016000206040518060c001604052908160008201548152602001600182015481526020016002820160009054906101000a900473ffffffffffffffffffffffffffffffffffffffff1673ffffffffffffffffffffffffffffffffffffffff1673ffffffffffffffffffffffffffffffffffffffff1681526020016002820160149054906101000a900460ff16600281111561072b5761072a611641565b5b600281111561073d5761073c611641565b5b8152602001600382015481526020016004820160009054906101000a900460ff1615151515815250509050919050565b600260009054906101000a900473ffffffffffffffffffffffffffffffffffffffff1673ffffffffffffffffffffffffffffffffffffffff163373ffffffffffffffffffffffffffffffffffffffff16146107fd576040517f08c379a00000000000000000000000000000000000000000000000000000000081526004016107f490611d2b565b60405180910390fd5b80600260006101000a81548173ffffffffffffffffffffffffffffffffffffffff021916908373ffffffffffffffffffffffffffffffffffffffff16021790555050565b60036020528060005260406000206000915090508060000180546108649061204c565b80601f01602080910402602001604051908101604052809291908181526020018280546108909061204c565b80156108dd5780601f106108b2576101008083540402835291602001916108dd565b820191906000526020600020905b8154815290600101906020018083116108c057829003601f168201915b5050505050908060010160009054906101000a900460ff16908060010160019054906101000a900460ff16908060020180546109189061204c565b80601f01602080910402602001604051908101604052809291908181526020018280546109449061204c565b80156109915780601f1061096657610100808354040283529160200191610991565b820191906000526020600020905b81548152906001019060200180831161097457829003601f168201915b5050505050908060030160009054906101000a900463ffffffff16908060030160049054906101000a900460ff16905086565b600260009054906101000a900473ffffffffffffffffffffffffffffffffffffffff1673ffffffffffffffffffffffffffffffffffffffff163373ffffffffffffffffffffffffffffffffffffffff1614610a54576040517f08c379a0000000000000000000000000000000000000000000000000000000008152600401610a4b90611d2b565b60405180910390fd5b600015156003600086815260200190815260200160002060030160049054906101000a900460ff16151514610abe576040517f08c379a0000000000000000000000000000000000000000000000000000000008152600401610ab5906120c9565b60405180910390fd5b600060036000868152602001908152602001600020905083816000019081610ae69190612295565b5082816002019081610af89190612295565b50818160030160006101000a81548163ffffffff021916908363ffffffff16021790555060008160010160006101000a81548160ff02191690836002811115610b4457610b43611641565b5b021790555060018160030160046101000a81548160ff0219169083151502179055507fec31214c1ca232b33c180b3a60f66a13d46a0f54b3bc6514c8b4d9023e4350b885858585604051610b9b9493929190612367565b60405180910390a15050505050565b6000806000600160008581526020019081526020016000206000806002811115610bd757610bd6611641565b5b6002811115610be957610be8611641565b5b81526020019081526020016000205460016000868152602001908152602001600020600060016002811115610c2157610c20611641565b5b6002811115610c3357610c32611641565b5b815260200190815260200160002054600160008781526020019081526020016000206000600280811115610c6a57610c69611641565b5b6002811115610c7c57610c7b611641565b5b8152602001908152602001600020549250925092509193909250565b60008082815260200190815260200160002060040160009054906101000a900460ff16610cfa576040517f08c379a0000000000000000000000000000000000000000000000000000000008152600401610cf190612406565b60405180910390fd5b60008060008381526020019081526020016000206001015490506003600082815260200190815260200160002060030160049054906101000a900460ff16610d77576040517f08c379a0000000000000000000000000000000000000000000000000000000008152600401610d6e90612472565b60405180910390fd5b60016002811115610d8b57610d8a611641565b5b6003600083815260200190815260200160002060010160009054906101000a900460ff166002811115610dc157610dc0611641565b5b14610e01576040517f08c379a0000000000000000000000000000000000000000000000000000000008152600401610df8906124de565b60405180910390fd5b60008083815260200190815260200160002060020160149054906101000a900460ff166002811115610e3657610e35611641565b5b6003600083815260200190815260200160002060010160019054906101000a900460ff166002811115610e6c57610e6b611641565b5b14610eac576040517f08c379a0000000000000000000000000000000000000000000000000000000008152600401610ea39061254a565b60405180910390fd5b6000612710610edd8360008087815260200190815260200160002060020160149054906101000a900460ff1661121e565b63ffffffff1660008086815260200190815260200160002060030154610f03919061256a565b610f0d91906125db565b9050600460009054906101000a900473ffffffffffffffffffffffffffffffffffffffff1673ffffffffffffffffffffffffffffffffffffffff1663a9059cbb33836040518363ffffffff1660e01b8152600401610f6c92919061260c565b6020604051808303816000875af1158015610f8b573d6000803e3d6000fd5b505050506040513d601f19601f82011682018060405250810190610faf9190612661565b507f73d0a02236bb6046096b7a8463d163949e872b4b6941a98a6edd0d2765a30ff0833383604051610fe39392919061268e565b60405180910390a1505050565b600260009054906101000a900473ffffffffffffffffffffffffffffffffffffffff1681565b61101e6113de565b600360008381526020019081526020016000206040518060c001604052908160008201805461104c9061204c565b80601f01602080910402602001604051908101604052809291908181526020018280546110789061204c565b80156110c55780601f1061109a576101008083540402835291602001916110c5565b820191906000526020600020905b8154815290600101906020018083116110a857829003601f168201915b505050505081526020016001820160009054906101000a900460ff1660028111156110f3576110f2611641565b5b600281111561110557611104611641565b5b81526020016001820160019054906101000a900460ff16600281111561112e5761112d611641565b5b60028111156111405761113f611641565b5b81526020016002820180546111549061204c565b80601f01602080910402602001604051908101604052809291908181526020018280546111809061204c565b80156111cd5780601f106111a2576101008083540402835291602001916111cd565b820191906000526020600020905b8154815290600101906020018083116111b057829003601f168201915b505050505081526020016003820160009054906101000a900463ffffffff1663ffffffff1663ffffffff1681526020016003820160049054906101000a900460ff1615151515815250509050919050565b600060016000848152602001908152602001600020600083600281111561124857611247611641565b5b600281111561125a57611259611641565b5b81526020019081526020016000205461271060016000868152602001908152602001600020600060028081111561129457611293611641565b5b60028111156112a6576112a5611641565b5b815260200190815260200160002054600160008781526020019081526020016000206000600160028111156112de576112dd611641565b5b60028111156112f0576112ef611641565b5b81526020019081526020016000205460016000888152602001908152602001600020600080600281111561132757611326611641565b5b600281111561133957611338611641565b5b8152602001908152602001600020546113529190611f96565b61135c9190611f96565b611366919061256a565b61137091906125db565b905092915050565b6040518060c001604052806000801916815260200160008019168152602001600073ffffffffffffffffffffffffffffffffffffffff168152602001600060028111156113c8576113c7611641565b5b8152602001600081526020016000151581525090565b6040518060c00160405280606081526020016000600281111561140457611403611641565b5b81526020016000600281111561141d5761141c611641565b5b815260200160608152602001600063ffffffff1681526020016000151581525090565b6000604051905090565b600080fd5b600080fd5b6000819050919050565b61146781611454565b811461147257600080fd5b50565b6000813590506114848161145e565b92915050565b6003811061149757600080fd5b50565b6000813590506114a98161148a565b92915050565b600381106114bc57600080fd5b50565b6000813590506114ce816114af565b92915050565b6000806000606084860312156114ed576114ec61144a565b5b60006114fb86828701611475565b935050602061150c8682870161149a565b925050604061151d868287016114bf565b9150509250925092565b6000819050919050565b61153a81611527565b811461154557600080fd5b50565b60008135905061155781611531565b92915050565b600080600080608085870312156115775761157661144a565b5b600061158587828801611475565b945050602061159687828801611475565b93505060406115a7878288016114bf565b92505060606115b887828801611548565b91505092959194509250565b6000602082840312156115da576115d961144a565b5b60006115e884828501611475565b91505092915050565b6115fa81611454565b82525050565b600073ffffffffffffffffffffffffffffffffffffffff82169050919050565b600061162b82611600565b9050919050565b61163b81611620565b82525050565b7f4e487b7100000000000000000000000000000000000000000000000000000000600052602160045260246000fd5b6003811061168157611680611641565b5b50565b600081905061169282611670565b919050565b60006116a282611684565b9050919050565b6116b281611697565b82525050565b6116c181611527565b82525050565b60008115159050919050565b6116dc816116c7565b82525050565b60c0820160008201516116f860008501826115f1565b50602082015161170b60208501826115f1565b50604082015161171e6040850182611632565b50606082015161173160608501826116a9565b50608082015161174460808501826116b8565b5060a082015161175760a08501826116d3565b50505050565b600060c08201905061177260008301846116e2565b92915050565b61178181611620565b811461178c57600080fd5b50565b60008135905061179e81611778565b92915050565b6000602082840312156117ba576117b961144a565b5b60006117c88482850161178f565b91505092915050565b600081519050919050565b600082825260208201905092915050565b60005b8381101561180b5780820151818401526020810190506117f0565b60008484015250505050565b6000601f19601f8301169050919050565b6000611833826117d1565b61183d81856117dc565b935061184d8185602086016117ed565b61185681611817565b840191505092915050565b6003811061187257611871611641565b5b50565b600081905061188382611861565b919050565b600061189382611875565b9050919050565b6118a381611888565b82525050565b6118b281611697565b82525050565b600063ffffffff82169050919050565b6118d1816118b8565b82525050565b6118e0816116c7565b82525050565b600060c08201905081810360008301526119008189611828565b905061190f602083018861189a565b61191c60408301876118a9565b818103606083015261192e8186611828565b905061193d60808301856118c8565b61194a60a08301846118d7565b979650505050505050565b600080fd5b600080fd5b7f4e487b7100000000000000000000000000000000000000000000000000000000600052604160045260246000fd5b61199782611817565b810181811067ffffffffffffffff821117156119b6576119b561195f565b5b80604052505050565b60006119c9611440565b90506119d5828261198e565b919050565b600067ffffffffffffffff8211156119f5576119f461195f565b5b6119fe82611817565b9050602081019050919050565b82818337600083830152505050565b6000611a2d611a28846119da565b6119bf565b905082815260208101848484011115611a4957611a4861195a565b5b611a54848285611a0b565b509392505050565b600082601f830112611a7157611a70611955565b5b8135611a81848260208601611a1a565b91505092915050565b611a93816118b8565b8114611a9e57600080fd5b50565b600081359050611ab081611a8a565b92915050565b60008060008060808587031215611ad057611acf61144a565b5b6000611ade87828801611475565b945050602085013567ffffffffffffffff811115611aff57611afe61144f565b5b611b0b87828801611a5c565b935050604085013567ffffffffffffffff811115611b2c57611b2b61144f565b5b611b3887828801611a5c565b9250506060611b4987828801611aa1565b91505092959194509250565b611b5e81611527565b82525050565b6000606082019050611b796000830186611b55565b611b866020830185611b55565b611b936040830184611b55565b949350505050565b611ba481611620565b82525050565b6000602082019050611bbf6000830184611b9b565b92915050565b600082825260208201905092915050565b6000611be1826117d1565b611beb8185611bc5565b9350611bfb8185602086016117ed565b611c0481611817565b840191505092915050565b611c1881611888565b82525050565b611c27816118b8565b82525050565b600060c0830160008301518482036000860152611c4a8282611bd6565b9150506020830151611c5f6020860182611c0f565b506040830151611c7260408601826116a9565b5060608301518482036060860152611c8a8282611bd6565b9150506080830151611c9f6080860182611c1e565b5060a0830151611cb260a08601826116d3565b508091505092915050565b60006020820190508181036000830152611cd78184611c2d565b905092915050565b7f556e617574686f72697a65640000000000000000000000000000000000000000600082015250565b6000611d15600c836117dc565b9150611d2082611cdf565b602082019050919050565b60006020820190508181036000830152611d4481611d08565b9050919050565b7f43616e206e6f742066696e64206d617463680000000000000000000000000000600082015250565b6000611d816012836117dc565b9150611d8c82611d4b565b602082019050919050565b60006020820190508181036000830152611db081611d74565b9050919050565b611dc081611454565b82525050565b6000606082019050611ddb6000830186611db7565b611de8602083018561189a565b611df560408301846118a9565b949350505050565b7f4d6174636820646f6573206e6f74206578697374730000000000000000000000600082015250565b6000611e336015836117dc565b9150611e3e82611dfd565b602082019050919050565b60006020820190508181036000830152611e6281611e26565b9050919050565b7f42657420697320636c6f73656400000000000000000000000000000000000000600082015250565b6000611e9f600d836117dc565b9150611eaa82611e69565b602082019050919050565b60006020820190508181036000830152611ece81611e92565b9050919050565b7f42657420616d6f756e74206d7573742062652067726561746572207468616e2060008201527f7a65726f00000000000000000000000000000000000000000000000000000000602082015250565b6000611f316024836117dc565b9150611f3c82611ed5565b604082019050919050565b60006020820190508181036000830152611f6081611f24565b9050919050565b7f4e487b7100000000000000000000000000000000000000000000000000000000600052601160045260246000fd5b6000611fa182611527565b9150611fac83611527565b9250828201905080821115611fc457611fc3611f67565b5b92915050565b600060a082019050611fdf6000830188611db7565b611fec6020830187611db7565b611ff96040830186611b9b565b61200660608301856118a9565b6120136080830184611b55565b9695505050505050565b7f4e487b7100000000000000000000000000000000000000000000000000000000600052602260045260246000fd5b6000600282049050600182168061206457607f821691505b6020821081036120775761207661201d565b5b50919050565b7f4d6174636820686173206265656e206372656174656400000000000000000000600082015250565b60006120b36016836117dc565b91506120be8261207d565b602082019050919050565b600060208201905081810360008301526120e2816120a6565b9050919050565b60008190508160005260206000209050919050565b60006020601f8301049050919050565b600082821b905092915050565b60006008830261214b7fffffffffffffffffffffffffffffffffffffffffffffffffffffffffffffffff8261210e565b612155868361210e565b95508019841693508086168417925050509392505050565b6000819050919050565b600061219261218d61218884611527565b61216d565b611527565b9050919050565b6000819050919050565b6121ac83612177565b6121c06121b882612199565b84845461211b565b825550505050565b600090565b6121d56121c8565b6121e08184846121a3565b505050565b5b81811015612204576121f96000826121cd565b6001810190506121e6565b5050565b601f8211156122495761221a816120e9565b612223846120fe565b81016020851015612232578190505b61224661223e856120fe565b8301826121e5565b50505b505050565b600082821c905092915050565b600061226c6000198460080261224e565b1980831691505092915050565b6000612285838361225b565b9150826002028217905092915050565b61229e826117d1565b67ffffffffffffffff8111156122b7576122b661195f565b5b6122c1825461204c565b6122cc828285612208565b600060209050601f8311600181146122ff57600084156122ed578287015190505b6122f78582612279565b86555061235f565b601f19841661230d866120e9565b60005b8281101561233557848901518255600182019150602085019450602081019050612310565b86831015612352578489015161234e601f89168261225b565b8355505b6001600288020188555050505b505050505050565b600060808201905061237c6000830187611db7565b818103602083015261238e8186611828565b905081810360408301526123a28185611828565b90506123b160608301846118c8565b95945050505050565b7f42657420646f6573206e6f742065786973740000000000000000000000000000600082015250565b60006123f06012836117dc565b91506123fb826123ba565b602082019050919050565b6000602082019050818103600083015261241f816123e3565b9050919050565b7f4d6174636820646f6573206e6f74206578697374000000000000000000000000600082015250565b600061245c6014836117dc565b915061246782612426565b602082019050919050565b6000602082019050818103600083015261248b8161244f565b9050919050565b7f4d6174636820686173206e6f742066696e697368656400000000000000000000600082015250565b60006124c86016836117dc565b91506124d382612492565b602082019050919050565b600060208201905081810360008301526124f7816124bb565b9050919050565b7f20596f75206c6f73740000000000000000000000000000000000000000000000600082015250565b60006125346009836117dc565b915061253f826124fe565b602082019050919050565b6000602082019050818103600083015261256381612527565b9050919050565b600061257582611527565b915061258083611527565b925082820261258e81611527565b915082820484148315176125a5576125a4611f67565b5b5092915050565b7f4e487b7100000000000000000000000000000000000000000000000000000000600052601260045260246000fd5b60006125e682611527565b91506125f183611527565b925082612601576126006125ac565b5b828204905092915050565b60006040820190506126216000830185611b9b565b61262e6020830184611b55565b9392505050565b61263e816116c7565b811461264957600080fd5b50565b60008151905061265b81612635565b92915050565b6000602082840312156126775761267661144a565b5b60006126858482850161264c565b91505092915050565b60006060820190506126a36000830186611db7565b6126b06020830185611b9b565b6126bd6040830184611b55565b94935050505056fea2646970667358221220e682b979721fb2c38d3c4368816ea9b931928b4c6a0b521d90c236cff74a8bcb64736f6c63430008180033",
          "opcodes": "PUSH1 0x80 PUSH1 0x40 MSTORE CALLVALUE DUP1 ISZERO PUSH3 0x11 JUMPI PUSH1 0x0 DUP1 REVERT JUMPDEST POP PUSH1 0x40 MLOAD PUSH3 0x2867 CODESIZE SUB DUP1 PUSH3 0x2867 DUP4 CODECOPY DUP2 DUP2 ADD PUSH1 0x40 MSTORE DUP2 ADD SWAP1 PUSH3 0x37 SWAP2 SWAP1 PUSH3 0x12A JUMP JUMPDEST CALLER PUSH1 0x2 PUSH1 0x0 PUSH2 0x100 EXP DUP2 SLOAD DUP2 PUSH20 0xFFFFFFFFFFFFFFFFFFFFFFFFFFFFFFFFFFFFFFFF MUL NOT AND SWAP1 DUP4 PUSH20 0xFFFFFFFFFFFFFFFFFFFFFFFFFFFFFFFFFFFFFFFF AND MUL OR SWAP1 SSTORE POP DUP1 PUSH1 0x4 PUSH1 0x0 PUSH2 0x100 EXP DUP2 SLOAD DUP2 PUSH20 0xFFFFFFFFFFFFFFFFFFFFFFFFFFFFFFFFFFFFFFFF MUL NOT AND SWAP1 DUP4 PUSH20 0xFFFFFFFFFFFFFFFFFFFFFFFFFFFFFFFFFFFFFFFF AND MUL OR SWAP1 SSTORE POP POP PUSH3 0x15C JUMP JUMPDEST PUSH1 0x0 DUP1 REVERT JUMPDEST PUSH1 0x0 PUSH20 0xFFFFFFFFFFFFFFFFFFFFFFFFFFFFFFFFFFFFFFFF DUP3 AND SWAP1 POP SWAP2 SWAP1 POP JUMP JUMPDEST PUSH1 0x0 PUSH3 0xF2 DUP3 PUSH3 0xC5 JUMP JUMPDEST SWAP1 POP SWAP2 SWAP1 POP JUMP JUMPDEST PUSH3 0x104 DUP2 PUSH3 0xE5 JUMP JUMPDEST DUP2 EQ PUSH3 0x110 JUMPI PUSH1 0x0 DUP1 REVERT JUMPDEST POP JUMP JUMPDEST PUSH1 0x0 DUP2 MLOAD SWAP1 POP PUSH3 0x124 DUP2 PUSH3 0xF9 JUMP JUMPDEST SWAP3 SWAP2 POP POP JUMP JUMPDEST PUSH1 0x0 PUSH1 0x20 DUP3 DUP5 SUB SLT ISZERO PUSH3 0x143 JUMPI PUSH3 0x142 PUSH3 0xC0 JUMP JUMPDEST JUMPDEST PUSH1 0x0 PUSH3 0x153 DUP5 DUP3 DUP6 ADD PUSH3 0x113 JUMP JUMPDEST SWAP2 POP POP SWAP3 SWAP2 POP POP JUMP JUMPDEST PUSH2 0x26FB DUP1 PUSH3 0x16C PUSH1 0x0 CODECOPY PUSH1 0x0 RETURN INVALID PUSH1 0x80 PUSH1 0x40 MSTORE PUSH1 0x4 CALLDATASIZE LT PUSH2 0x91 JUMPI PUSH1 0x0 CALLDATALOAD PUSH1 0xE0 SHR DUP1 PUSH4 0xCAD7622C GT PUSH2 0x59 JUMPI DUP1 PUSH4 0xCAD7622C EQ PUSH2 0x169 JUMPI DUP1 PUSH4 0xE8CEEA2F EQ PUSH2 0x185 JUMPI DUP1 PUSH4 0xF5414023 EQ PUSH2 0x1B7 JUMPI DUP1 PUSH4 0xF851A440 EQ PUSH2 0x1D3 JUMPI DUP1 PUSH4 0xFCC6077D EQ PUSH2 0x1FE JUMPI PUSH2 0x91 JUMP JUMPDEST DUP1 PUSH4 0x9D3BF13 EQ PUSH2 0x96 JUMPI DUP1 PUSH4 0xA6DC6E0 EQ PUSH2 0xB2 JUMPI DUP1 PUSH4 0x37E8C09E EQ PUSH2 0xCE JUMPI DUP1 PUSH4 0x704B6C02 EQ PUSH2 0x10B JUMPI DUP1 PUSH4 0x9FE9ADA3 EQ PUSH2 0x127 JUMPI JUMPDEST PUSH1 0x0 DUP1 REVERT JUMPDEST PUSH2 0xB0 PUSH1 0x4 DUP1 CALLDATASIZE SUB DUP2 ADD SWAP1 PUSH2 0xAB SWAP2 SWAP1 PUSH2 0x14D4 JUMP JUMPDEST PUSH2 0x23B JUMP JUMPDEST STOP JUMPDEST PUSH2 0xCC PUSH1 0x4 DUP1 CALLDATASIZE SUB DUP2 ADD SWAP1 PUSH2 0xC7 SWAP2 SWAP1 PUSH2 0x155D JUMP JUMPDEST PUSH2 0x3E5 JUMP JUMPDEST STOP JUMPDEST CALLVALUE DUP1 ISZERO PUSH2 0xDA JUMPI PUSH1 0x0 DUP1 REVERT JUMPDEST POP PUSH2 0xF5 PUSH1 0x4 DUP1 CALLDATASIZE SUB DUP2 ADD SWAP1 PUSH2 0xF0 SWAP2 SWAP1 PUSH2 0x15C4 JUMP JUMPDEST PUSH2 0x677 JUMP JUMPDEST PUSH1 0x40 MLOAD PUSH2 0x102 SWAP2 SWAP1 PUSH2 0x175D JUMP JUMPDEST PUSH1 0x40 MLOAD DUP1 SWAP2 SUB SWAP1 RETURN JUMPDEST PUSH2 0x125 PUSH1 0x4 DUP1 CALLDATASIZE SUB DUP2 ADD SWAP1 PUSH2 0x120 SWAP2 SWAP1 PUSH2 0x17A4 JUMP JUMPDEST PUSH2 0x76D JUMP JUMPDEST STOP JUMPDEST CALLVALUE DUP1 ISZERO PUSH2 0x133 JUMPI PUSH1 0x0 DUP1 REVERT JUMPDEST POP PUSH2 0x14E PUSH1 0x4 DUP1 CALLDATASIZE SUB DUP2 ADD SWAP1 PUSH2 0x149 SWAP2 SWAP1 PUSH2 0x15C4 JUMP JUMPDEST PUSH2 0x841 JUMP JUMPDEST PUSH1 0x40 MLOAD PUSH2 0x160 SWAP7 SWAP6 SWAP5 SWAP4 SWAP3 SWAP2 SWAP1 PUSH2 0x18E6 JUMP JUMPDEST PUSH1 0x40 MLOAD DUP1 SWAP2 SUB SWAP1 RETURN JUMPDEST PUSH2 0x183 PUSH1 0x4 DUP1 CALLDATASIZE SUB DUP2 ADD SWAP1 PUSH2 0x17E SWAP2 SWAP1 PUSH2 0x1AB6 JUMP JUMPDEST PUSH2 0x9C4 JUMP JUMPDEST STOP JUMPDEST PUSH2 0x19F PUSH1 0x4 DUP1 CALLDATASIZE SUB DUP2 ADD SWAP1 PUSH2 0x19A SWAP2 SWAP1 PUSH2 0x15C4 JUMP JUMPDEST PUSH2 0xBAA JUMP JUMPDEST PUSH1 0x40 MLOAD PUSH2 0x1AE SWAP4 SWAP3 SWAP2 SWAP1 PUSH2 0x1B64 JUMP JUMPDEST PUSH1 0x40 MLOAD DUP1 SWAP2 SUB SWAP1 RETURN JUMPDEST PUSH2 0x1D1 PUSH1 0x4 DUP1 CALLDATASIZE SUB DUP2 ADD SWAP1 PUSH2 0x1CC SWAP2 SWAP1 PUSH2 0x15C4 JUMP JUMPDEST PUSH2 0xC98 JUMP JUMPDEST STOP JUMPDEST CALLVALUE DUP1 ISZERO PUSH2 0x1DF JUMPI PUSH1 0x0 DUP1 REVERT JUMPDEST POP PUSH2 0x1E8 PUSH2 0xFF0 JUMP JUMPDEST PUSH1 0x40 MLOAD PUSH2 0x1F5 SWAP2 SWAP1 PUSH2 0x1BAA JUMP JUMPDEST PUSH1 0x40 MLOAD DUP1 SWAP2 SUB SWAP1 RETURN JUMPDEST CALLVALUE DUP1 ISZERO PUSH2 0x20A JUMPI PUSH1 0x0 DUP1 REVERT JUMPDEST POP PUSH2 0x225 PUSH1 0x4 DUP1 CALLDATASIZE SUB DUP2 ADD SWAP1 PUSH2 0x220 SWAP2 SWAP1 PUSH2 0x15C4 JUMP JUMPDEST PUSH2 0x1016 JUMP JUMPDEST PUSH1 0x40 MLOAD PUSH2 0x232 SWAP2 SWAP1 PUSH2 0x1CBD JUMP JUMPDEST PUSH1 0x40 MLOAD DUP1 SWAP2 SUB SWAP1 RETURN JUMPDEST PUSH1 0x2 PUSH1 0x0 SWAP1 SLOAD SWAP1 PUSH2 0x100 EXP SWAP1 DIV PUSH20 0xFFFFFFFFFFFFFFFFFFFFFFFFFFFFFFFFFFFFFFFF AND PUSH20 0xFFFFFFFFFFFFFFFFFFFFFFFFFFFFFFFFFFFFFFFF AND CALLER PUSH20 0xFFFFFFFFFFFFFFFFFFFFFFFFFFFFFFFFFFFFFFFF AND EQ PUSH2 0x2CB JUMPI PUSH1 0x40 MLOAD PUSH32 0x8C379A000000000000000000000000000000000000000000000000000000000 DUP2 MSTORE PUSH1 0x4 ADD PUSH2 0x2C2 SWAP1 PUSH2 0x1D2B JUMP JUMPDEST PUSH1 0x40 MLOAD DUP1 SWAP2 SUB SWAP1 REVERT JUMPDEST PUSH1 0x1 ISZERO ISZERO PUSH1 0x3 PUSH1 0x0 DUP6 DUP2 MSTORE PUSH1 0x20 ADD SWAP1 DUP2 MSTORE PUSH1 0x20 ADD PUSH1 0x0 KECCAK256 PUSH1 0x3 ADD PUSH1 0x4 SWAP1 SLOAD SWAP1 PUSH2 0x100 EXP SWAP1 DIV PUSH1 0xFF AND ISZERO ISZERO EQ PUSH2 0x335 JUMPI PUSH1 0x40 MLOAD PUSH32 0x8C379A000000000000000000000000000000000000000000000000000000000 DUP2 MSTORE PUSH1 0x4 ADD PUSH2 0x32C SWAP1 PUSH2 0x1D97 JUMP JUMPDEST PUSH1 0x40 MLOAD DUP1 SWAP2 SUB SWAP1 REVERT JUMPDEST PUSH1 0x0 PUSH1 0x3 PUSH1 0x0 DUP6 DUP2 MSTORE PUSH1 0x20 ADD SWAP1 DUP2 MSTORE PUSH1 0x20 ADD PUSH1 0x0 KECCAK256 SWAP1 POP DUP3 DUP2 PUSH1 0x1 ADD PUSH1 0x0 PUSH2 0x100 EXP DUP2 SLOAD DUP2 PUSH1 0xFF MUL NOT AND SWAP1 DUP4 PUSH1 0x2 DUP2 GT ISZERO PUSH2 0x373 JUMPI PUSH2 0x372 PUSH2 0x1641 JUMP JUMPDEST JUMPDEST MUL OR SWAP1 SSTORE POP DUP2 DUP2 PUSH1 0x1 ADD PUSH1 0x1 PUSH2 0x100 EXP DUP2 SLOAD DUP2 PUSH1 0xFF MUL NOT AND SWAP1 DUP4 PUSH1 0x2 DUP2 GT ISZERO PUSH2 0x39F JUMPI PUSH2 0x39E PUSH2 0x1641 JUMP JUMPDEST JUMPDEST MUL OR SWAP1 SSTORE POP PUSH32 0xAF4B0FF6D7B710FB8FCB44E1282C597DB336F2AFC306FC1C9593F984A1455DEB DUP5 DUP5 DUP5 PUSH1 0x40 MLOAD PUSH2 0x3D7 SWAP4 SWAP3 SWAP2 SWAP1 PUSH2 0x1DC6 JUMP JUMPDEST PUSH1 0x40 MLOAD DUP1 SWAP2 SUB SWAP1 LOG1 POP POP POP POP JUMP JUMPDEST PUSH1 0x3 PUSH1 0x0 DUP6 DUP2 MSTORE PUSH1 0x20 ADD SWAP1 DUP2 MSTORE PUSH1 0x20 ADD PUSH1 0x0 KECCAK256 PUSH1 0x3 ADD PUSH1 0x4 SWAP1 SLOAD SWAP1 PUSH2 0x100 EXP SWAP1 DIV PUSH1 0xFF AND PUSH2 0x448 JUMPI PUSH1 0x40 MLOAD PUSH32 0x8C379A000000000000000000000000000000000000000000000000000000000 DUP2 MSTORE PUSH1 0x4 ADD PUSH2 0x43F SWAP1 PUSH2 0x1E49 JUMP JUMPDEST PUSH1 0x40 MLOAD DUP1 SWAP2 SUB SWAP1 REVERT JUMPDEST PUSH1 0x0 PUSH1 0x2 DUP2 GT ISZERO PUSH2 0x45C JUMPI PUSH2 0x45B PUSH2 0x1641 JUMP JUMPDEST JUMPDEST PUSH1 0x3 PUSH1 0x0 DUP7 DUP2 MSTORE PUSH1 0x20 ADD SWAP1 DUP2 MSTORE PUSH1 0x20 ADD PUSH1 0x0 KECCAK256 PUSH1 0x1 ADD PUSH1 0x0 SWAP1 SLOAD SWAP1 PUSH2 0x100 EXP SWAP1 DIV PUSH1 0xFF AND PUSH1 0x2 DUP2 GT ISZERO PUSH2 0x492 JUMPI PUSH2 0x491 PUSH2 0x1641 JUMP JUMPDEST JUMPDEST EQ PUSH2 0x4D2 JUMPI PUSH1 0x40 MLOAD PUSH32 0x8C379A000000000000000000000000000000000000000000000000000000000 DUP2 MSTORE PUSH1 0x4 ADD PUSH2 0x4C9 SWAP1 PUSH2 0x1EB5 JUMP JUMPDEST PUSH1 0x40 MLOAD DUP1 SWAP2 SUB SWAP1 REVERT JUMPDEST PUSH1 0x0 DUP2 GT PUSH2 0x515 JUMPI PUSH1 0x40 MLOAD PUSH32 0x8C379A000000000000000000000000000000000000000000000000000000000 DUP2 MSTORE PUSH1 0x4 ADD PUSH2 0x50C SWAP1 PUSH2 0x1F47 JUMP JUMPDEST PUSH1 0x40 MLOAD DUP1 SWAP2 SUB SWAP1 REVERT JUMPDEST PUSH1 0x0 DUP1 PUSH1 0x0 DUP6 DUP2 MSTORE PUSH1 0x20 ADD SWAP1 DUP2 MSTORE PUSH1 0x20 ADD PUSH1 0x0 KECCAK256 SWAP1 POP DUP2 DUP2 PUSH1 0x3 ADD DUP2 SWAP1 SSTORE POP DUP5 DUP2 PUSH1 0x1 ADD DUP2 SWAP1 SSTORE POP DUP4 DUP2 PUSH1 0x0 ADD DUP2 SWAP1 SSTORE POP DUP3 DUP2 PUSH1 0x2 ADD PUSH1 0x14 PUSH2 0x100 EXP DUP2 SLOAD DUP2 PUSH1 0xFF MUL NOT AND SWAP1 DUP4 PUSH1 0x2 DUP2 GT ISZERO PUSH2 0x56D JUMPI PUSH2 0x56C PUSH2 0x1641 JUMP JUMPDEST JUMPDEST MUL OR SWAP1 SSTORE POP CALLER DUP2 PUSH1 0x2 ADD PUSH1 0x0 PUSH2 0x100 EXP DUP2 SLOAD DUP2 PUSH20 0xFFFFFFFFFFFFFFFFFFFFFFFFFFFFFFFFFFFFFFFF MUL NOT AND SWAP1 DUP4 PUSH20 0xFFFFFFFFFFFFFFFFFFFFFFFFFFFFFFFFFFFFFFFF AND MUL OR SWAP1 SSTORE POP PUSH1 0x1 DUP2 PUSH1 0x4 ADD PUSH1 0x0 PUSH2 0x100 EXP DUP2 SLOAD DUP2 PUSH1 0xFF MUL NOT AND SWAP1 DUP4 ISZERO ISZERO MUL OR SWAP1 SSTORE POP DUP2 PUSH1 0x1 PUSH1 0x0 DUP8 DUP2 MSTORE PUSH1 0x20 ADD SWAP1 DUP2 MSTORE PUSH1 0x20 ADD PUSH1 0x0 KECCAK256 PUSH1 0x0 DUP6 PUSH1 0x2 DUP2 GT ISZERO PUSH2 0x5FB JUMPI PUSH2 0x5FA PUSH2 0x1641 JUMP JUMPDEST JUMPDEST PUSH1 0x2 DUP2 GT ISZERO PUSH2 0x60D JUMPI PUSH2 0x60C PUSH2 0x1641 JUMP JUMPDEST JUMPDEST DUP2 MSTORE PUSH1 0x20 ADD SWAP1 DUP2 MSTORE PUSH1 0x20 ADD PUSH1 0x0 KECCAK256 PUSH1 0x0 DUP3 DUP3 SLOAD PUSH2 0x62A SWAP2 SWAP1 PUSH2 0x1F96 JUMP JUMPDEST SWAP3 POP POP DUP2 SWAP1 SSTORE POP PUSH32 0xD6DB1018188EC08413A9556EB1EE30461CF3940B134D72352FEBCD936A1E181D DUP6 DUP6 CALLER DUP7 DUP7 PUSH1 0x40 MLOAD PUSH2 0x668 SWAP6 SWAP5 SWAP4 SWAP3 SWAP2 SWAP1 PUSH2 0x1FCA JUMP JUMPDEST PUSH1 0x40 MLOAD DUP1 SWAP2 SUB SWAP1 LOG1 POP POP POP POP POP JUMP JUMPDEST PUSH2 0x67F PUSH2 0x1378 JUMP JUMPDEST PUSH1 0x0 DUP1 DUP4 DUP2 MSTORE PUSH1 0x20 ADD SWAP1 DUP2 MSTORE PUSH1 0x20 ADD PUSH1 0x0 KECCAK256 PUSH1 0x40 MLOAD DUP1 PUSH1 0xC0 ADD PUSH1 0x40 MSTORE SWAP1 DUP2 PUSH1 0x0 DUP3 ADD SLOAD DUP2 MSTORE PUSH1 0x20 ADD PUSH1 0x1 DUP3 ADD SLOAD DUP2 MSTORE PUSH1 0x20 ADD PUSH1 0x2 DUP3 ADD PUSH1 0x0 SWAP1 SLOAD SWAP1 PUSH2 0x100 EXP SWAP1 DIV PUSH20 0xFFFFFFFFFFFFFFFFFFFFFFFFFFFFFFFFFFFFFFFF AND PUSH20 0xFFFFFFFFFFFFFFFFFFFFFFFFFFFFFFFFFFFFFFFF AND PUSH20 0xFFFFFFFFFFFFFFFFFFFFFFFFFFFFFFFFFFFFFFFF AND DUP2 MSTORE PUSH1 0x20 ADD PUSH1 0x2 DUP3 ADD PUSH1 0x14 SWAP1 SLOAD SWAP1 PUSH2 0x100 EXP SWAP1 DIV PUSH1 0xFF AND PUSH1 0x2 DUP2 GT ISZERO PUSH2 0x72B JUMPI PUSH2 0x72A PUSH2 0x1641 JUMP JUMPDEST JUMPDEST PUSH1 0x2 DUP2 GT ISZERO PUSH2 0x73D JUMPI PUSH2 0x73C PUSH2 0x1641 JUMP JUMPDEST JUMPDEST DUP2 MSTORE PUSH1 0x20 ADD PUSH1 0x3 DUP3 ADD SLOAD DUP2 MSTORE PUSH1 0x20 ADD PUSH1 0x4 DUP3 ADD PUSH1 0x0 SWAP1 SLOAD SWAP1 PUSH2 0x100 EXP SWAP1 DIV PUSH1 0xFF AND ISZERO ISZERO ISZERO ISZERO DUP2 MSTORE POP POP SWAP1 POP SWAP2 SWAP1 POP JUMP JUMPDEST PUSH1 0x2 PUSH1 0x0 SWAP1 SLOAD SWAP1 PUSH2 0x100 EXP SWAP1 DIV PUSH20 0xFFFFFFFFFFFFFFFFFFFFFFFFFFFFFFFFFFFFFFFF AND PUSH20 0xFFFFFFFFFFFFFFFFFFFFFFFFFFFFFFFFFFFFFFFF AND CALLER PUSH20 0xFFFFFFFFFFFFFFFFFFFFFFFFFFFFFFFFFFFFFFFF AND EQ PUSH2 0x7FD JUMPI PUSH1 0x40 MLOAD PUSH32 0x8C379A000000000000000000000000000000000000000000000000000000000 DUP2 MSTORE PUSH1 0x4 ADD PUSH2 0x7F4 SWAP1 PUSH2 0x1D2B JUMP JUMPDEST PUSH1 0x40 MLOAD DUP1 SWAP2 SUB SWAP1 REVERT JUMPDEST DUP1 PUSH1 0x2 PUSH1 0x0 PUSH2 0x100 EXP DUP2 SLOAD DUP2 PUSH20 0xFFFFFFFFFFFFFFFFFFFFFFFFFFFFFFFFFFFFFFFF MUL NOT AND SWAP1 DUP4 PUSH20 0xFFFFFFFFFFFFFFFFFFFFFFFFFFFFFFFFFFFFFFFF AND MUL OR SWAP1 SSTORE POP POP JUMP JUMPDEST PUSH1 0x3 PUSH1 0x20 MSTORE DUP1 PUSH1 0x0 MSTORE PUSH1 0x40 PUSH1 0x0 KECCAK256 PUSH1 0x0 SWAP2 POP SWAP1 POP DUP1 PUSH1 0x0 ADD DUP1 SLOAD PUSH2 0x864 SWAP1 PUSH2 0x204C JUMP JUMPDEST DUP1 PUSH1 0x1F ADD PUSH1 0x20 DUP1 SWAP2 DIV MUL PUSH1 0x20 ADD PUSH1 0x40 MLOAD SWAP1 DUP2 ADD PUSH1 0x40 MSTORE DUP1 SWAP3 SWAP2 SWAP1 DUP2 DUP2 MSTORE PUSH1 0x20 ADD DUP3 DUP1 SLOAD PUSH2 0x890 SWAP1 PUSH2 0x204C JUMP JUMPDEST DUP1 ISZERO PUSH2 0x8DD JUMPI DUP1 PUSH1 0x1F LT PUSH2 0x8B2 JUMPI PUSH2 0x100 DUP1 DUP4 SLOAD DIV MUL DUP4 MSTORE SWAP2 PUSH1 0x20 ADD SWAP2 PUSH2 0x8DD JUMP JUMPDEST DUP3 ADD SWAP2 SWAP1 PUSH1 0x0 MSTORE PUSH1 0x20 PUSH1 0x0 KECCAK256 SWAP1 JUMPDEST DUP2 SLOAD DUP2 MSTORE SWAP1 PUSH1 0x1 ADD SWAP1 PUSH1 0x20 ADD DUP1 DUP4 GT PUSH2 0x8C0 JUMPI DUP3 SWAP1 SUB PUSH1 0x1F AND DUP3 ADD SWAP2 JUMPDEST POP POP POP POP POP SWAP1 DUP1 PUSH1 0x1 ADD PUSH1 0x0 SWAP1 SLOAD SWAP1 PUSH2 0x100 EXP SWAP1 DIV PUSH1 0xFF AND SWAP1 DUP1 PUSH1 0x1 ADD PUSH1 0x1 SWAP1 SLOAD SWAP1 PUSH2 0x100 EXP SWAP1 DIV PUSH1 0xFF AND SWAP1 DUP1 PUSH1 0x2 ADD DUP1 SLOAD PUSH2 0x918 SWAP1 PUSH2 0x204C JUMP JUMPDEST DUP1 PUSH1 0x1F ADD PUSH1 0x20 DUP1 SWAP2 DIV MUL PUSH1 0x20 ADD PUSH1 0x40 MLOAD SWAP1 DUP2 ADD PUSH1 0x40 MSTORE DUP1 SWAP3 SWAP2 SWAP1 DUP2 DUP2 MSTORE PUSH1 0x20 ADD DUP3 DUP1 SLOAD PUSH2 0x944 SWAP1 PUSH2 0x204C JUMP JUMPDEST DUP1 ISZERO PUSH2 0x991 JUMPI DUP1 PUSH1 0x1F LT PUSH2 0x966 JUMPI PUSH2 0x100 DUP1 DUP4 SLOAD DIV MUL DUP4 MSTORE SWAP2 PUSH1 0x20 ADD SWAP2 PUSH2 0x991 JUMP JUMPDEST DUP3 ADD SWAP2 SWAP1 PUSH1 0x0 MSTORE PUSH1 0x20 PUSH1 0x0 KECCAK256 SWAP1 JUMPDEST DUP2 SLOAD DUP2 MSTORE SWAP1 PUSH1 0x1 ADD SWAP1 PUSH1 0x20 ADD DUP1 DUP4 GT PUSH2 0x974 JUMPI DUP3 SWAP1 SUB PUSH1 0x1F AND DUP3 ADD SWAP2 JUMPDEST POP POP POP POP POP SWAP1 DUP1 PUSH1 0x3 ADD PUSH1 0x0 SWAP1 SLOAD SWAP1 PUSH2 0x100 EXP SWAP1 DIV PUSH4 0xFFFFFFFF AND SWAP1 DUP1 PUSH1 0x3 ADD PUSH1 0x4 SWAP1 SLOAD SWAP1 PUSH2 0x100 EXP SWAP1 DIV PUSH1 0xFF AND SWAP1 POP DUP7 JUMP JUMPDEST PUSH1 0x2 PUSH1 0x0 SWAP1 SLOAD SWAP1 PUSH2 0x100 EXP SWAP1 DIV PUSH20 0xFFFFFFFFFFFFFFFFFFFFFFFFFFFFFFFFFFFFFFFF AND PUSH20 0xFFFFFFFFFFFFFFFFFFFFFFFFFFFFFFFFFFFFFFFF AND CALLER PUSH20 0xFFFFFFFFFFFFFFFFFFFFFFFFFFFFFFFFFFFFFFFF AND EQ PUSH2 0xA54 JUMPI PUSH1 0x40 MLOAD PUSH32 0x8C379A000000000000000000000000000000000000000000000000000000000 DUP2 MSTORE PUSH1 0x4 ADD PUSH2 0xA4B SWAP1 PUSH2 0x1D2B JUMP JUMPDEST PUSH1 0x40 MLOAD DUP1 SWAP2 SUB SWAP1 REVERT JUMPDEST PUSH1 0x0 ISZERO ISZERO PUSH1 0x3 PUSH1 0x0 DUP7 DUP2 MSTORE PUSH1 0x20 ADD SWAP1 DUP2 MSTORE PUSH1 0x20 ADD PUSH1 0x0 KECCAK256 PUSH1 0x3 ADD PUSH1 0x4 SWAP1 SLOAD SWAP1 PUSH2 0x100 EXP SWAP1 DIV PUSH1 0xFF AND ISZERO ISZERO EQ PUSH2 0xABE JUMPI PUSH1 0x40 MLOAD PUSH32 0x8C379A000000000000000000000000000000000000000000000000000000000 DUP2 MSTORE PUSH1 0x4 ADD PUSH2 0xAB5 SWAP1 PUSH2 0x20C9 JUMP JUMPDEST PUSH1 0x40 MLOAD DUP1 SWAP2 SUB SWAP1 REVERT JUMPDEST PUSH1 0x0 PUSH1 0x3 PUSH1 0x0 DUP7 DUP2 MSTORE PUSH1 0x20 ADD SWAP1 DUP2 MSTORE PUSH1 0x20 ADD PUSH1 0x0 KECCAK256 SWAP1 POP DUP4 DUP2 PUSH1 0x0 ADD SWAP1 DUP2 PUSH2 0xAE6 SWAP2 SWAP1 PUSH2 0x2295 JUMP JUMPDEST POP DUP3 DUP2 PUSH1 0x2 ADD SWAP1 DUP2 PUSH2 0xAF8 SWAP2 SWAP1 PUSH2 0x2295 JUMP JUMPDEST POP DUP2 DUP2 PUSH1 0x3 ADD PUSH1 0x0 PUSH2 0x100 EXP DUP2 SLOAD DUP2 PUSH4 0xFFFFFFFF MUL NOT AND SWAP1 DUP4 PUSH4 0xFFFFFFFF AND MUL OR SWAP1 SSTORE POP PUSH1 0x0 DUP2 PUSH1 0x1 ADD PUSH1 0x0 PUSH2 0x100 EXP DUP2 SLOAD DUP2 PUSH1 0xFF MUL NOT AND SWAP1 DUP4 PUSH1 0x2 DUP2 GT ISZERO PUSH2 0xB44 JUMPI PUSH2 0xB43 PUSH2 0x1641 JUMP JUMPDEST JUMPDEST MUL OR SWAP1 SSTORE POP PUSH1 0x1 DUP2 PUSH1 0x3 ADD PUSH1 0x4 PUSH2 0x100 EXP DUP2 SLOAD DUP2 PUSH1 0xFF MUL NOT AND SWAP1 DUP4 ISZERO ISZERO MUL OR SWAP1 SSTORE POP PUSH32 0xEC31214C1CA232B33C180B3A60F66A13D46A0F54B3BC6514C8B4D9023E4350B8 DUP6 DUP6 DUP6 DUP6 PUSH1 0x40 MLOAD PUSH2 0xB9B SWAP5 SWAP4 SWAP3 SWAP2 SWAP1 PUSH2 0x2367 JUMP JUMPDEST PUSH1 0x40 MLOAD DUP1 SWAP2 SUB SWAP1 LOG1 POP POP POP POP POP JUMP JUMPDEST PUSH1 0x0 DUP1 PUSH1 0x0 PUSH1 0x1 PUSH1 0x0 DUP6 DUP2 MSTORE PUSH1 0x20 ADD SWAP1 DUP2 MSTORE PUSH1 0x20 ADD PUSH1 0x0 KECCAK256 PUSH1 0x0 DUP1 PUSH1 0x2 DUP2 GT ISZERO PUSH2 0xBD7 JUMPI PUSH2 0xBD6 PUSH2 0x1641 JUMP JUMPDEST JUMPDEST PUSH1 0x2 DUP2 GT ISZERO PUSH2 0xBE9 JUMPI PUSH2 0xBE8 PUSH2 0x1641 JUMP JUMPDEST JUMPDEST DUP2 MSTORE PUSH1 0x20 ADD SWAP1 DUP2 MSTORE PUSH1 0x20 ADD PUSH1 0x0 KECCAK256 SLOAD PUSH1 0x1 PUSH1 0x0 DUP7 DUP2 MSTORE PUSH1 0x20 ADD SWAP1 DUP2 MSTORE PUSH1 0x20 ADD PUSH1 0x0 KECCAK256 PUSH1 0x0 PUSH1 0x1 PUSH1 0x2 DUP2 GT ISZERO PUSH2 0xC21 JUMPI PUSH2 0xC20 PUSH2 0x1641 JUMP JUMPDEST JUMPDEST PUSH1 0x2 DUP2 GT ISZERO PUSH2 0xC33 JUMPI PUSH2 0xC32 PUSH2 0x1641 JUMP JUMPDEST JUMPDEST DUP2 MSTORE PUSH1 0x20 ADD SWAP1 DUP2 MSTORE PUSH1 0x20 ADD PUSH1 0x0 KECCAK256 SLOAD PUSH1 0x1 PUSH1 0x0 DUP8 DUP2 MSTORE PUSH1 0x20 ADD SWAP1 DUP2 MSTORE PUSH1 0x20 ADD PUSH1 0x0 KECCAK256 PUSH1 0x0 PUSH1 0x2 DUP1 DUP2 GT ISZERO PUSH2 0xC6A JUMPI PUSH2 0xC69 PUSH2 0x1641 JUMP JUMPDEST JUMPDEST PUSH1 0x2 DUP2 GT ISZERO PUSH2 0xC7C JUMPI PUSH2 0xC7B PUSH2 0x1641 JUMP JUMPDEST JUMPDEST DUP2 MSTORE PUSH1 0x20 ADD SWAP1 DUP2 MSTORE PUSH1 0x20 ADD PUSH1 0x0 KECCAK256 SLOAD SWAP3 POP SWAP3 POP SWAP3 POP SWAP2 SWAP4 SWAP1 SWAP3 POP JUMP JUMPDEST PUSH1 0x0 DUP1 DUP3 DUP2 MSTORE PUSH1 0x20 ADD SWAP1 DUP2 MSTORE PUSH1 0x20 ADD PUSH1 0x0 KECCAK256 PUSH1 0x4 ADD PUSH1 0x0 SWAP1 SLOAD SWAP1 PUSH2 0x100 EXP SWAP1 DIV PUSH1 0xFF AND PUSH2 0xCFA JUMPI PUSH1 0x40 MLOAD PUSH32 0x8C379A000000000000000000000000000000000000000000000000000000000 DUP2 MSTORE PUSH1 0x4 ADD PUSH2 0xCF1 SWAP1 PUSH2 0x2406 JUMP JUMPDEST PUSH1 0x40 MLOAD DUP1 SWAP2 SUB SWAP1 REVERT JUMPDEST PUSH1 0x0 DUP1 PUSH1 0x0 DUP4 DUP2 MSTORE PUSH1 0x20 ADD SWAP1 DUP2 MSTORE PUSH1 0x20 ADD PUSH1 0x0 KECCAK256 PUSH1 0x1 ADD SLOAD SWAP1 POP PUSH1 0x3 PUSH1 0x0 DUP3 DUP2 MSTORE PUSH1 0x20 ADD SWAP1 DUP2 MSTORE PUSH1 0x20 ADD PUSH1 0x0 KECCAK256 PUSH1 0x3 ADD PUSH1 0x4 SWAP1 SLOAD SWAP1 PUSH2 0x100 EXP SWAP1 DIV PUSH1 0xFF AND PUSH2 0xD77 JUMPI PUSH1 0x40 MLOAD PUSH32 0x8C379A000000000000000000000000000000000000000000000000000000000 DUP2 MSTORE PUSH1 0x4 ADD PUSH2 0xD6E SWAP1 PUSH2 0x2472 JUMP JUMPDEST PUSH1 0x40 MLOAD DUP1 SWAP2 SUB SWAP1 REVERT JUMPDEST PUSH1 0x1 PUSH1 0x2 DUP2 GT ISZERO PUSH2 0xD8B JUMPI PUSH2 0xD8A PUSH2 0x1641 JUMP JUMPDEST JUMPDEST PUSH1 0x3 PUSH1 0x0 DUP4 DUP2 MSTORE PUSH1 0x20 ADD SWAP1 DUP2 MSTORE PUSH1 0x20 ADD PUSH1 0x0 KECCAK256 PUSH1 0x1 ADD PUSH1 0x0 SWAP1 SLOAD SWAP1 PUSH2 0x100 EXP SWAP1 DIV PUSH1 0xFF AND PUSH1 0x2 DUP2 GT ISZERO PUSH2 0xDC1 JUMPI PUSH2 0xDC0 PUSH2 0x1641 JUMP JUMPDEST JUMPDEST EQ PUSH2 0xE01 JUMPI PUSH1 0x40 MLOAD PUSH32 0x8C379A000000000000000000000000000000000000000000000000000000000 DUP2 MSTORE PUSH1 0x4 ADD PUSH2 0xDF8 SWAP1 PUSH2 0x24DE JUMP JUMPDEST PUSH1 0x40 MLOAD DUP1 SWAP2 SUB SWAP1 REVERT JUMPDEST PUSH1 0x0 DUP1 DUP4 DUP2 MSTORE PUSH1 0x20 ADD SWAP1 DUP2 MSTORE PUSH1 0x20 ADD PUSH1 0x0 KECCAK256 PUSH1 0x2 ADD PUSH1 0x14 SWAP1 SLOAD SWAP1 PUSH2 0x100 EXP SWAP1 DIV PUSH1 0xFF AND PUSH1 0x2 DUP2 GT ISZERO PUSH2 0xE36 JUMPI PUSH2 0xE35 PUSH2 0x1641 JUMP JUMPDEST JUMPDEST PUSH1 0x3 PUSH1 0x0 DUP4 DUP2 MSTORE PUSH1 0x20 ADD SWAP1 DUP2 MSTORE PUSH1 0x20 ADD PUSH1 0x0 KECCAK256 PUSH1 0x1 ADD PUSH1 0x1 SWAP1 SLOAD SWAP1 PUSH2 0x100 EXP SWAP1 DIV PUSH1 0xFF AND PUSH1 0x2 DUP2 GT ISZERO PUSH2 0xE6C JUMPI PUSH2 0xE6B PUSH2 0x1641 JUMP JUMPDEST JUMPDEST EQ PUSH2 0xEAC JUMPI PUSH1 0x40 MLOAD PUSH32 0x8C379A000000000000000000000000000000000000000000000000000000000 DUP2 MSTORE PUSH1 0x4 ADD PUSH2 0xEA3 SWAP1 PUSH2 0x254A JUMP JUMPDEST PUSH1 0x40 MLOAD DUP1 SWAP2 SUB SWAP1 REVERT JUMPDEST PUSH1 0x0 PUSH2 0x2710 PUSH2 0xEDD DUP4 PUSH1 0x0 DUP1 DUP8 DUP2 MSTORE PUSH1 0x20 ADD SWAP1 DUP2 MSTORE PUSH1 0x20 ADD PUSH1 0x0 KECCAK256 PUSH1 0x2 ADD PUSH1 0x14 SWAP1 SLOAD SWAP1 PUSH2 0x100 EXP SWAP1 DIV PUSH1 0xFF AND PUSH2 0x121E JUMP JUMPDEST PUSH4 0xFFFFFFFF AND PUSH1 0x0 DUP1 DUP7 DUP2 MSTORE PUSH1 0x20 ADD SWAP1 DUP2 MSTORE PUSH1 0x20 ADD PUSH1 0x0 KECCAK256 PUSH1 0x3 ADD SLOAD PUSH2 0xF03 SWAP2 SWAP1 PUSH2 0x256A JUMP JUMPDEST PUSH2 0xF0D SWAP2 SWAP1 PUSH2 0x25DB JUMP JUMPDEST SWAP1 POP PUSH1 0x4 PUSH1 0x0 SWAP1 SLOAD SWAP1 PUSH2 0x100 EXP SWAP1 DIV PUSH20 0xFFFFFFFFFFFFFFFFFFFFFFFFFFFFFFFFFFFFFFFF AND PUSH20 0xFFFFFFFFFFFFFFFFFFFFFFFFFFFFFFFFFFFFFFFF AND PUSH4 0xA9059CBB CALLER DUP4 PUSH1 0x40 MLOAD DUP4 PUSH4 0xFFFFFFFF AND PUSH1 0xE0 SHL DUP2 MSTORE PUSH1 0x4 ADD PUSH2 0xF6C SWAP3 SWAP2 SWAP1 PUSH2 0x260C JUMP JUMPDEST PUSH1 0x20 PUSH1 0x40 MLOAD DUP1 DUP4 SUB DUP2 PUSH1 0x0 DUP8 GAS CALL ISZERO DUP1 ISZERO PUSH2 0xF8B JUMPI RETURNDATASIZE PUSH1 0x0 DUP1 RETURNDATACOPY RETURNDATASIZE PUSH1 0x0 REVERT JUMPDEST POP POP POP POP PUSH1 0x40 MLOAD RETURNDATASIZE PUSH1 0x1F NOT PUSH1 0x1F DUP3 ADD AND DUP3 ADD DUP1 PUSH1 0x40 MSTORE POP DUP2 ADD SWAP1 PUSH2 0xFAF SWAP2 SWAP1 PUSH2 0x2661 JUMP JUMPDEST POP PUSH32 0x73D0A02236BB6046096B7A8463D163949E872B4B6941A98A6EDD0D2765A30FF0 DUP4 CALLER DUP4 PUSH1 0x40 MLOAD PUSH2 0xFE3 SWAP4 SWAP3 SWAP2 SWAP1 PUSH2 0x268E JUMP JUMPDEST PUSH1 0x40 MLOAD DUP1 SWAP2 SUB SWAP1 LOG1 POP POP POP JUMP JUMPDEST PUSH1 0x2 PUSH1 0x0 SWAP1 SLOAD SWAP1 PUSH2 0x100 EXP SWAP1 DIV PUSH20 0xFFFFFFFFFFFFFFFFFFFFFFFFFFFFFFFFFFFFFFFF AND DUP2 JUMP JUMPDEST PUSH2 0x101E PUSH2 0x13DE JUMP JUMPDEST PUSH1 0x3 PUSH1 0x0 DUP4 DUP2 MSTORE PUSH1 0x20 ADD SWAP1 DUP2 MSTORE PUSH1 0x20 ADD PUSH1 0x0 KECCAK256 PUSH1 0x40 MLOAD DUP1 PUSH1 0xC0 ADD PUSH1 0x40 MSTORE SWAP1 DUP2 PUSH1 0x0 DUP3 ADD DUP1 SLOAD PUSH2 0x104C SWAP1 PUSH2 0x204C JUMP JUMPDEST DUP1 PUSH1 0x1F ADD PUSH1 0x20 DUP1 SWAP2 DIV MUL PUSH1 0x20 ADD PUSH1 0x40 MLOAD SWAP1 DUP2 ADD PUSH1 0x40 MSTORE DUP1 SWAP3 SWAP2 SWAP1 DUP2 DUP2 MSTORE PUSH1 0x20 ADD DUP3 DUP1 SLOAD PUSH2 0x1078 SWAP1 PUSH2 0x204C JUMP JUMPDEST DUP1 ISZERO PUSH2 0x10C5 JUMPI DUP1 PUSH1 0x1F LT PUSH2 0x109A JUMPI PUSH2 0x100 DUP1 DUP4 SLOAD DIV MUL DUP4 MSTORE SWAP2 PUSH1 0x20 ADD SWAP2 PUSH2 0x10C5 JUMP JUMPDEST DUP3 ADD SWAP2 SWAP1 PUSH1 0x0 MSTORE PUSH1 0x20 PUSH1 0x0 KECCAK256 SWAP1 JUMPDEST DUP2 SLOAD DUP2 MSTORE SWAP1 PUSH1 0x1 ADD SWAP1 PUSH1 0x20 ADD DUP1 DUP4 GT PUSH2 0x10A8 JUMPI DUP3 SWAP1 SUB PUSH1 0x1F AND DUP3 ADD SWAP2 JUMPDEST POP POP POP POP POP DUP2 MSTORE PUSH1 0x20 ADD PUSH1 0x1 DUP3 ADD PUSH1 0x0 SWAP1 SLOAD SWAP1 PUSH2 0x100 EXP SWAP1 DIV PUSH1 0xFF AND PUSH1 0x2 DUP2 GT ISZERO PUSH2 0x10F3 JUMPI PUSH2 0x10F2 PUSH2 0x1641 JUMP JUMPDEST JUMPDEST PUSH1 0x2 DUP2 GT ISZERO PUSH2 0x1105 JUMPI PUSH2 0x1104 PUSH2 0x1641 JUMP JUMPDEST JUMPDEST DUP2 MSTORE PUSH1 0x20 ADD PUSH1 0x1 DUP3 ADD PUSH1 0x1 SWAP1 SLOAD SWAP1 PUSH2 0x100 EXP SWAP1 DIV PUSH1 0xFF AND PUSH1 0x2 DUP2 GT ISZERO PUSH2 0x112E JUMPI PUSH2 0x112D PUSH2 0x1641 JUMP JUMPDEST JUMPDEST PUSH1 0x2 DUP2 GT ISZERO PUSH2 0x1140 JUMPI PUSH2 0x113F PUSH2 0x1641 JUMP JUMPDEST JUMPDEST DUP2 MSTORE PUSH1 0x20 ADD PUSH1 0x2 DUP3 ADD DUP1 SLOAD PUSH2 0x1154 SWAP1 PUSH2 0x204C JUMP JUMPDEST DUP1 PUSH1 0x1F ADD PUSH1 0x20 DUP1 SWAP2 DIV MUL PUSH1 0x20 ADD PUSH1 0x40 MLOAD SWAP1 DUP2 ADD PUSH1 0x40 MSTORE DUP1 SWAP3 SWAP2 SWAP1 DUP2 DUP2 MSTORE PUSH1 0x20 ADD DUP3 DUP1 SLOAD PUSH2 0x1180 SWAP1 PUSH2 0x204C JUMP JUMPDEST DUP1 ISZERO PUSH2 0x11CD JUMPI DUP1 PUSH1 0x1F LT PUSH2 0x11A2 JUMPI PUSH2 0x100 DUP1 DUP4 SLOAD DIV MUL DUP4 MSTORE SWAP2 PUSH1 0x20 ADD SWAP2 PUSH2 0x11CD JUMP JUMPDEST DUP3 ADD SWAP2 SWAP1 PUSH1 0x0 MSTORE PUSH1 0x20 PUSH1 0x0 KECCAK256 SWAP1 JUMPDEST DUP2 SLOAD DUP2 MSTORE SWAP1 PUSH1 0x1 ADD SWAP1 PUSH1 0x20 ADD DUP1 DUP4 GT PUSH2 0x11B0 JUMPI DUP3 SWAP1 SUB PUSH1 0x1F AND DUP3 ADD SWAP2 JUMPDEST POP POP POP POP POP DUP2 MSTORE PUSH1 0x20 ADD PUSH1 0x3 DUP3 ADD PUSH1 0x0 SWAP1 SLOAD SWAP1 PUSH2 0x100 EXP SWAP1 DIV PUSH4 0xFFFFFFFF AND PUSH4 0xFFFFFFFF AND PUSH4 0xFFFFFFFF AND DUP2 MSTORE PUSH1 0x20 ADD PUSH1 0x3 DUP3 ADD PUSH1 0x4 SWAP1 SLOAD SWAP1 PUSH2 0x100 EXP SWAP1 DIV PUSH1 0xFF AND ISZERO ISZERO ISZERO ISZERO DUP2 MSTORE POP POP SWAP1 POP SWAP2 SWAP1 POP JUMP JUMPDEST PUSH1 0x0 PUSH1 0x1 PUSH1 0x0 DUP5 DUP2 MSTORE PUSH1 0x20 ADD SWAP1 DUP2 MSTORE PUSH1 0x20 ADD PUSH1 0x0 KECCAK256 PUSH1 0x0 DUP4 PUSH1 0x2 DUP2 GT ISZERO PUSH2 0x1248 JUMPI PUSH2 0x1247 PUSH2 0x1641 JUMP JUMPDEST JUMPDEST PUSH1 0x2 DUP2 GT ISZERO PUSH2 0x125A JUMPI PUSH2 0x1259 PUSH2 0x1641 JUMP JUMPDEST JUMPDEST DUP2 MSTORE PUSH1 0x20 ADD SWAP1 DUP2 MSTORE PUSH1 0x20 ADD PUSH1 0x0 KECCAK256 SLOAD PUSH2 0x2710 PUSH1 0x1 PUSH1 0x0 DUP7 DUP2 MSTORE PUSH1 0x20 ADD SWAP1 DUP2 MSTORE PUSH1 0x20 ADD PUSH1 0x0 KECCAK256 PUSH1 0x0 PUSH1 0x2 DUP1 DUP2 GT ISZERO PUSH2 0x1294 JUMPI PUSH2 0x1293 PUSH2 0x1641 JUMP JUMPDEST JUMPDEST PUSH1 0x2 DUP2 GT ISZERO PUSH2 0x12A6 JUMPI PUSH2 0x12A5 PUSH2 0x1641 JUMP JUMPDEST JUMPDEST DUP2 MSTORE PUSH1 0x20 ADD SWAP1 DUP2 MSTORE PUSH1 0x20 ADD PUSH1 0x0 KECCAK256 SLOAD PUSH1 0x1 PUSH1 0x0 DUP8 DUP2 MSTORE PUSH1 0x20 ADD SWAP1 DUP2 MSTORE PUSH1 0x20 ADD PUSH1 0x0 KECCAK256 PUSH1 0x0 PUSH1 0x1 PUSH1 0x2 DUP2 GT ISZERO PUSH2 0x12DE JUMPI PUSH2 0x12DD PUSH2 0x1641 JUMP JUMPDEST JUMPDEST PUSH1 0x2 DUP2 GT ISZERO PUSH2 0x12F0 JUMPI PUSH2 0x12EF PUSH2 0x1641 JUMP JUMPDEST JUMPDEST DUP2 MSTORE PUSH1 0x20 ADD SWAP1 DUP2 MSTORE PUSH1 0x20 ADD PUSH1 0x0 KECCAK256 SLOAD PUSH1 0x1 PUSH1 0x0 DUP9 DUP2 MSTORE PUSH1 0x20 ADD SWAP1 DUP2 MSTORE PUSH1 0x20 ADD PUSH1 0x0 KECCAK256 PUSH1 0x0 DUP1 PUSH1 0x2 DUP2 GT ISZERO PUSH2 0x1327 JUMPI PUSH2 0x1326 PUSH2 0x1641 JUMP JUMPDEST JUMPDEST PUSH1 0x2 DUP2 GT ISZERO PUSH2 0x1339 JUMPI PUSH2 0x1338 PUSH2 0x1641 JUMP JUMPDEST JUMPDEST DUP2 MSTORE PUSH1 0x20 ADD SWAP1 DUP2 MSTORE PUSH1 0x20 ADD PUSH1 0x0 KECCAK256 SLOAD PUSH2 0x1352 SWAP2 SWAP1 PUSH2 0x1F96 JUMP JUMPDEST PUSH2 0x135C SWAP2 SWAP1 PUSH2 0x1F96 JUMP JUMPDEST PUSH2 0x1366 SWAP2 SWAP1 PUSH2 0x256A JUMP JUMPDEST PUSH2 0x1370 SWAP2 SWAP1 PUSH2 0x25DB JUMP JUMPDEST SWAP1 POP SWAP3 SWAP2 POP POP JUMP JUMPDEST PUSH1 0x40 MLOAD DUP1 PUSH1 0xC0 ADD PUSH1 0x40 MSTORE DUP1 PUSH1 0x0 DUP1 NOT AND DUP2 MSTORE PUSH1 0x20 ADD PUSH1 0x0 DUP1 NOT AND DUP2 MSTORE PUSH1 0x20 ADD PUSH1 0x0 PUSH20 0xFFFFFFFFFFFFFFFFFFFFFFFFFFFFFFFFFFFFFFFF AND DUP2 MSTORE PUSH1 0x20 ADD PUSH1 0x0 PUSH1 0x2 DUP2 GT ISZERO PUSH2 0x13C8 JUMPI PUSH2 0x13C7 PUSH2 0x1641 JUMP JUMPDEST JUMPDEST DUP2 MSTORE PUSH1 0x20 ADD PUSH1 0x0 DUP2 MSTORE PUSH1 0x20 ADD PUSH1 0x0 ISZERO ISZERO DUP2 MSTORE POP SWAP1 JUMP JUMPDEST PUSH1 0x40 MLOAD DUP1 PUSH1 0xC0 ADD PUSH1 0x40 MSTORE DUP1 PUSH1 0x60 DUP2 MSTORE PUSH1 0x20 ADD PUSH1 0x0 PUSH1 0x2 DUP2 GT ISZERO PUSH2 0x1404 JUMPI PUSH2 0x1403 PUSH2 0x1641 JUMP JUMPDEST JUMPDEST DUP2 MSTORE PUSH1 0x20 ADD PUSH1 0x0 PUSH1 0x2 DUP2 GT ISZERO PUSH2 0x141D JUMPI PUSH2 0x141C PUSH2 0x1641 JUMP JUMPDEST JUMPDEST DUP2 MSTORE PUSH1 0x20 ADD PUSH1 0x60 DUP2 MSTORE PUSH1 0x20 ADD PUSH1 0x0 PUSH4 0xFFFFFFFF AND DUP2 MSTORE PUSH1 0x20 ADD PUSH1 0x0 ISZERO ISZERO DUP2 MSTORE POP SWAP1 JUMP JUMPDEST PUSH1 0x0 PUSH1 0x40 MLOAD SWAP1 POP SWAP1 JUMP JUMPDEST PUSH1 0x0 DUP1 REVERT JUMPDEST PUSH1 0x0 DUP1 REVERT JUMPDEST PUSH1 0x0 DUP2 SWAP1 POP SWAP2 SWAP1 POP JUMP JUMPDEST PUSH2 0x1467 DUP2 PUSH2 0x1454 JUMP JUMPDEST DUP2 EQ PUSH2 0x1472 JUMPI PUSH1 0x0 DUP1 REVERT JUMPDEST POP JUMP JUMPDEST PUSH1 0x0 DUP2 CALLDATALOAD SWAP1 POP PUSH2 0x1484 DUP2 PUSH2 0x145E JUMP JUMPDEST SWAP3 SWAP2 POP POP JUMP JUMPDEST PUSH1 0x3 DUP2 LT PUSH2 0x1497 JUMPI PUSH1 0x0 DUP1 REVERT JUMPDEST POP JUMP JUMPDEST PUSH1 0x0 DUP2 CALLDATALOAD SWAP1 POP PUSH2 0x14A9 DUP2 PUSH2 0x148A JUMP JUMPDEST SWAP3 SWAP2 POP POP JUMP JUMPDEST PUSH1 0x3 DUP2 LT PUSH2 0x14BC JUMPI PUSH1 0x0 DUP1 REVERT JUMPDEST POP JUMP JUMPDEST PUSH1 0x0 DUP2 CALLDATALOAD SWAP1 POP PUSH2 0x14CE DUP2 PUSH2 0x14AF JUMP JUMPDEST SWAP3 SWAP2 POP POP JUMP JUMPDEST PUSH1 0x0 DUP1 PUSH1 0x0 PUSH1 0x60 DUP5 DUP7 SUB SLT ISZERO PUSH2 0x14ED JUMPI PUSH2 0x14EC PUSH2 0x144A JUMP JUMPDEST JUMPDEST PUSH1 0x0 PUSH2 0x14FB DUP7 DUP3 DUP8 ADD PUSH2 0x1475 JUMP JUMPDEST SWAP4 POP POP PUSH1 0x20 PUSH2 0x150C DUP7 DUP3 DUP8 ADD PUSH2 0x149A JUMP JUMPDEST SWAP3 POP POP PUSH1 0x40 PUSH2 0x151D DUP7 DUP3 DUP8 ADD PUSH2 0x14BF JUMP JUMPDEST SWAP2 POP POP SWAP3 POP SWAP3 POP SWAP3 JUMP JUMPDEST PUSH1 0x0 DUP2 SWAP1 POP SWAP2 SWAP1 POP JUMP JUMPDEST PUSH2 0x153A DUP2 PUSH2 0x1527 JUMP JUMPDEST DUP2 EQ PUSH2 0x1545 JUMPI PUSH1 0x0 DUP1 REVERT JUMPDEST POP JUMP JUMPDEST PUSH1 0x0 DUP2 CALLDATALOAD SWAP1 POP PUSH2 0x1557 DUP2 PUSH2 0x1531 JUMP JUMPDEST SWAP3 SWAP2 POP POP JUMP JUMPDEST PUSH1 0x0 DUP1 PUSH1 0x0 DUP1 PUSH1 0x80 DUP6 DUP8 SUB SLT ISZERO PUSH2 0x1577 JUMPI PUSH2 0x1576 PUSH2 0x144A JUMP JUMPDEST JUMPDEST PUSH1 0x0 PUSH2 0x1585 DUP8 DUP3 DUP9 ADD PUSH2 0x1475 JUMP JUMPDEST SWAP5 POP POP PUSH1 0x20 PUSH2 0x1596 DUP8 DUP3 DUP9 ADD PUSH2 0x1475 JUMP JUMPDEST SWAP4 POP POP PUSH1 0x40 PUSH2 0x15A7 DUP8 DUP3 DUP9 ADD PUSH2 0x14BF JUMP JUMPDEST SWAP3 POP POP PUSH1 0x60 PUSH2 0x15B8 DUP8 DUP3 DUP9 ADD PUSH2 0x1548 JUMP JUMPDEST SWAP2 POP POP SWAP3 SWAP6 SWAP2 SWAP5 POP SWAP3 POP JUMP JUMPDEST PUSH1 0x0 PUSH1 0x20 DUP3 DUP5 SUB SLT ISZERO PUSH2 0x15DA JUMPI PUSH2 0x15D9 PUSH2 0x144A JUMP JUMPDEST JUMPDEST PUSH1 0x0 PUSH2 0x15E8 DUP5 DUP3 DUP6 ADD PUSH2 0x1475 JUMP JUMPDEST SWAP2 POP POP SWAP3 SWAP2 POP POP JUMP JUMPDEST PUSH2 0x15FA DUP2 PUSH2 0x1454 JUMP JUMPDEST DUP3 MSTORE POP POP JUMP JUMPDEST PUSH1 0x0 PUSH20 0xFFFFFFFFFFFFFFFFFFFFFFFFFFFFFFFFFFFFFFFF DUP3 AND SWAP1 POP SWAP2 SWAP1 POP JUMP JUMPDEST PUSH1 0x0 PUSH2 0x162B DUP3 PUSH2 0x1600 JUMP JUMPDEST SWAP1 POP SWAP2 SWAP1 POP JUMP JUMPDEST PUSH2 0x163B DUP2 PUSH2 0x1620 JUMP JUMPDEST DUP3 MSTORE POP POP JUMP JUMPDEST PUSH32 0x4E487B7100000000000000000000000000000000000000000000000000000000 PUSH1 0x0 MSTORE PUSH1 0x21 PUSH1 0x4 MSTORE PUSH1 0x24 PUSH1 0x0 REVERT JUMPDEST PUSH1 0x3 DUP2 LT PUSH2 0x1681 JUMPI PUSH2 0x1680 PUSH2 0x1641 JUMP JUMPDEST JUMPDEST POP JUMP JUMPDEST PUSH1 0x0 DUP2 SWAP1 POP PUSH2 0x1692 DUP3 PUSH2 0x1670 JUMP JUMPDEST SWAP2 SWAP1 POP JUMP JUMPDEST PUSH1 0x0 PUSH2 0x16A2 DUP3 PUSH2 0x1684 JUMP JUMPDEST SWAP1 POP SWAP2 SWAP1 POP JUMP JUMPDEST PUSH2 0x16B2 DUP2 PUSH2 0x1697 JUMP JUMPDEST DUP3 MSTORE POP POP JUMP JUMPDEST PUSH2 0x16C1 DUP2 PUSH2 0x1527 JUMP JUMPDEST DUP3 MSTORE POP POP JUMP JUMPDEST PUSH1 0x0 DUP2 ISZERO ISZERO SWAP1 POP SWAP2 SWAP1 POP JUMP JUMPDEST PUSH2 0x16DC DUP2 PUSH2 0x16C7 JUMP JUMPDEST DUP3 MSTORE POP POP JUMP JUMPDEST PUSH1 0xC0 DUP3 ADD PUSH1 0x0 DUP3 ADD MLOAD PUSH2 0x16F8 PUSH1 0x0 DUP6 ADD DUP3 PUSH2 0x15F1 JUMP JUMPDEST POP PUSH1 0x20 DUP3 ADD MLOAD PUSH2 0x170B PUSH1 0x20 DUP6 ADD DUP3 PUSH2 0x15F1 JUMP JUMPDEST POP PUSH1 0x40 DUP3 ADD MLOAD PUSH2 0x171E PUSH1 0x40 DUP6 ADD DUP3 PUSH2 0x1632 JUMP JUMPDEST POP PUSH1 0x60 DUP3 ADD MLOAD PUSH2 0x1731 PUSH1 0x60 DUP6 ADD DUP3 PUSH2 0x16A9 JUMP JUMPDEST POP PUSH1 0x80 DUP3 ADD MLOAD PUSH2 0x1744 PUSH1 0x80 DUP6 ADD DUP3 PUSH2 0x16B8 JUMP JUMPDEST POP PUSH1 0xA0 DUP3 ADD MLOAD PUSH2 0x1757 PUSH1 0xA0 DUP6 ADD DUP3 PUSH2 0x16D3 JUMP JUMPDEST POP POP POP POP JUMP JUMPDEST PUSH1 0x0 PUSH1 0xC0 DUP3 ADD SWAP1 POP PUSH2 0x1772 PUSH1 0x0 DUP4 ADD DUP5 PUSH2 0x16E2 JUMP JUMPDEST SWAP3 SWAP2 POP POP JUMP JUMPDEST PUSH2 0x1781 DUP2 PUSH2 0x1620 JUMP JUMPDEST DUP2 EQ PUSH2 0x178C JUMPI PUSH1 0x0 DUP1 REVERT JUMPDEST POP JUMP JUMPDEST PUSH1 0x0 DUP2 CALLDATALOAD SWAP1 POP PUSH2 0x179E DUP2 PUSH2 0x1778 JUMP JUMPDEST SWAP3 SWAP2 POP POP JUMP JUMPDEST PUSH1 0x0 PUSH1 0x20 DUP3 DUP5 SUB SLT ISZERO PUSH2 0x17BA JUMPI PUSH2 0x17B9 PUSH2 0x144A JUMP JUMPDEST JUMPDEST PUSH1 0x0 PUSH2 0x17C8 DUP5 DUP3 DUP6 ADD PUSH2 0x178F JUMP JUMPDEST SWAP2 POP POP SWAP3 SWAP2 POP POP JUMP JUMPDEST PUSH1 0x0 DUP2 MLOAD SWAP1 POP SWAP2 SWAP1 POP JUMP JUMPDEST PUSH1 0x0 DUP3 DUP3 MSTORE PUSH1 0x20 DUP3 ADD SWAP1 POP SWAP3 SWAP2 POP POP JUMP JUMPDEST PUSH1 0x0 JUMPDEST DUP4 DUP2 LT ISZERO PUSH2 0x180B JUMPI DUP1 DUP3 ADD MLOAD DUP2 DUP5 ADD MSTORE PUSH1 0x20 DUP2 ADD SWAP1 POP PUSH2 0x17F0 JUMP JUMPDEST PUSH1 0x0 DUP5 DUP5 ADD MSTORE POP POP POP POP JUMP JUMPDEST PUSH1 0x0 PUSH1 0x1F NOT PUSH1 0x1F DUP4 ADD AND SWAP1 POP SWAP2 SWAP1 POP JUMP JUMPDEST PUSH1 0x0 PUSH2 0x1833 DUP3 PUSH2 0x17D1 JUMP JUMPDEST PUSH2 0x183D DUP2 DUP6 PUSH2 0x17DC JUMP JUMPDEST SWAP4 POP PUSH2 0x184D DUP2 DUP6 PUSH1 0x20 DUP7 ADD PUSH2 0x17ED JUMP JUMPDEST PUSH2 0x1856 DUP2 PUSH2 0x1817 JUMP JUMPDEST DUP5 ADD SWAP2 POP POP SWAP3 SWAP2 POP POP JUMP JUMPDEST PUSH1 0x3 DUP2 LT PUSH2 0x1872 JUMPI PUSH2 0x1871 PUSH2 0x1641 JUMP JUMPDEST JUMPDEST POP JUMP JUMPDEST PUSH1 0x0 DUP2 SWAP1 POP PUSH2 0x1883 DUP3 PUSH2 0x1861 JUMP JUMPDEST SWAP2 SWAP1 POP JUMP JUMPDEST PUSH1 0x0 PUSH2 0x1893 DUP3 PUSH2 0x1875 JUMP JUMPDEST SWAP1 POP SWAP2 SWAP1 POP JUMP JUMPDEST PUSH2 0x18A3 DUP2 PUSH2 0x1888 JUMP JUMPDEST DUP3 MSTORE POP POP JUMP JUMPDEST PUSH2 0x18B2 DUP2 PUSH2 0x1697 JUMP JUMPDEST DUP3 MSTORE POP POP JUMP JUMPDEST PUSH1 0x0 PUSH4 0xFFFFFFFF DUP3 AND SWAP1 POP SWAP2 SWAP1 POP JUMP JUMPDEST PUSH2 0x18D1 DUP2 PUSH2 0x18B8 JUMP JUMPDEST DUP3 MSTORE POP POP JUMP JUMPDEST PUSH2 0x18E0 DUP2 PUSH2 0x16C7 JUMP JUMPDEST DUP3 MSTORE POP POP JUMP JUMPDEST PUSH1 0x0 PUSH1 0xC0 DUP3 ADD SWAP1 POP DUP2 DUP2 SUB PUSH1 0x0 DUP4 ADD MSTORE PUSH2 0x1900 DUP2 DUP10 PUSH2 0x1828 JUMP JUMPDEST SWAP1 POP PUSH2 0x190F PUSH1 0x20 DUP4 ADD DUP9 PUSH2 0x189A JUMP JUMPDEST PUSH2 0x191C PUSH1 0x40 DUP4 ADD DUP8 PUSH2 0x18A9 JUMP JUMPDEST DUP2 DUP2 SUB PUSH1 0x60 DUP4 ADD MSTORE PUSH2 0x192E DUP2 DUP7 PUSH2 0x1828 JUMP JUMPDEST SWAP1 POP PUSH2 0x193D PUSH1 0x80 DUP4 ADD DUP6 PUSH2 0x18C8 JUMP JUMPDEST PUSH2 0x194A PUSH1 0xA0 DUP4 ADD DUP5 PUSH2 0x18D7 JUMP JUMPDEST SWAP8 SWAP7 POP POP POP POP POP POP POP JUMP JUMPDEST PUSH1 0x0 DUP1 REVERT JUMPDEST PUSH1 0x0 DUP1 REVERT JUMPDEST PUSH32 0x4E487B7100000000000000000000000000000000000000000000000000000000 PUSH1 0x0 MSTORE PUSH1 0x41 PUSH1 0x4 MSTORE PUSH1 0x24 PUSH1 0x0 REVERT JUMPDEST PUSH2 0x1997 DUP3 PUSH2 0x1817 JUMP JUMPDEST DUP2 ADD DUP2 DUP2 LT PUSH8 0xFFFFFFFFFFFFFFFF DUP3 GT OR ISZERO PUSH2 0x19B6 JUMPI PUSH2 0x19B5 PUSH2 0x195F JUMP JUMPDEST JUMPDEST DUP1 PUSH1 0x40 MSTORE POP POP POP JUMP JUMPDEST PUSH1 0x0 PUSH2 0x19C9 PUSH2 0x1440 JUMP JUMPDEST SWAP1 POP PUSH2 0x19D5 DUP3 DUP3 PUSH2 0x198E JUMP JUMPDEST SWAP2 SWAP1 POP JUMP JUMPDEST PUSH1 0x0 PUSH8 0xFFFFFFFFFFFFFFFF DUP3 GT ISZERO PUSH2 0x19F5 JUMPI PUSH2 0x19F4 PUSH2 0x195F JUMP JUMPDEST JUMPDEST PUSH2 0x19FE DUP3 PUSH2 0x1817 JUMP JUMPDEST SWAP1 POP PUSH1 0x20 DUP2 ADD SWAP1 POP SWAP2 SWAP1 POP JUMP JUMPDEST DUP3 DUP2 DUP4 CALLDATACOPY PUSH1 0x0 DUP4 DUP4 ADD MSTORE POP POP POP JUMP JUMPDEST PUSH1 0x0 PUSH2 0x1A2D PUSH2 0x1A28 DUP5 PUSH2 0x19DA JUMP JUMPDEST PUSH2 0x19BF JUMP JUMPDEST SWAP1 POP DUP3 DUP2 MSTORE PUSH1 0x20 DUP2 ADD DUP5 DUP5 DUP5 ADD GT ISZERO PUSH2 0x1A49 JUMPI PUSH2 0x1A48 PUSH2 0x195A JUMP JUMPDEST JUMPDEST PUSH2 0x1A54 DUP5 DUP3 DUP6 PUSH2 0x1A0B JUMP JUMPDEST POP SWAP4 SWAP3 POP POP POP JUMP JUMPDEST PUSH1 0x0 DUP3 PUSH1 0x1F DUP4 ADD SLT PUSH2 0x1A71 JUMPI PUSH2 0x1A70 PUSH2 0x1955 JUMP JUMPDEST JUMPDEST DUP2 CALLDATALOAD PUSH2 0x1A81 DUP5 DUP3 PUSH1 0x20 DUP7 ADD PUSH2 0x1A1A JUMP JUMPDEST SWAP2 POP POP SWAP3 SWAP2 POP POP JUMP JUMPDEST PUSH2 0x1A93 DUP2 PUSH2 0x18B8 JUMP JUMPDEST DUP2 EQ PUSH2 0x1A9E JUMPI PUSH1 0x0 DUP1 REVERT JUMPDEST POP JUMP JUMPDEST PUSH1 0x0 DUP2 CALLDATALOAD SWAP1 POP PUSH2 0x1AB0 DUP2 PUSH2 0x1A8A JUMP JUMPDEST SWAP3 SWAP2 POP POP JUMP JUMPDEST PUSH1 0x0 DUP1 PUSH1 0x0 DUP1 PUSH1 0x80 DUP6 DUP8 SUB SLT ISZERO PUSH2 0x1AD0 JUMPI PUSH2 0x1ACF PUSH2 0x144A JUMP JUMPDEST JUMPDEST PUSH1 0x0 PUSH2 0x1ADE DUP8 DUP3 DUP9 ADD PUSH2 0x1475 JUMP JUMPDEST SWAP5 POP POP PUSH1 0x20 DUP6 ADD CALLDATALOAD PUSH8 0xFFFFFFFFFFFFFFFF DUP2 GT ISZERO PUSH2 0x1AFF JUMPI PUSH2 0x1AFE PUSH2 0x144F JUMP JUMPDEST JUMPDEST PUSH2 0x1B0B DUP8 DUP3 DUP9 ADD PUSH2 0x1A5C JUMP JUMPDEST SWAP4 POP POP PUSH1 0x40 DUP6 ADD CALLDATALOAD PUSH8 0xFFFFFFFFFFFFFFFF DUP2 GT ISZERO PUSH2 0x1B2C JUMPI PUSH2 0x1B2B PUSH2 0x144F JUMP JUMPDEST JUMPDEST PUSH2 0x1B38 DUP8 DUP3 DUP9 ADD PUSH2 0x1A5C JUMP JUMPDEST SWAP3 POP POP PUSH1 0x60 PUSH2 0x1B49 DUP8 DUP3 DUP9 ADD PUSH2 0x1AA1 JUMP JUMPDEST SWAP2 POP POP SWAP3 SWAP6 SWAP2 SWAP5 POP SWAP3 POP JUMP JUMPDEST PUSH2 0x1B5E DUP2 PUSH2 0x1527 JUMP JUMPDEST DUP3 MSTORE POP POP JUMP JUMPDEST PUSH1 0x0 PUSH1 0x60 DUP3 ADD SWAP1 POP PUSH2 0x1B79 PUSH1 0x0 DUP4 ADD DUP7 PUSH2 0x1B55 JUMP JUMPDEST PUSH2 0x1B86 PUSH1 0x20 DUP4 ADD DUP6 PUSH2 0x1B55 JUMP JUMPDEST PUSH2 0x1B93 PUSH1 0x40 DUP4 ADD DUP5 PUSH2 0x1B55 JUMP JUMPDEST SWAP5 SWAP4 POP POP POP POP JUMP JUMPDEST PUSH2 0x1BA4 DUP2 PUSH2 0x1620 JUMP JUMPDEST DUP3 MSTORE POP POP JUMP JUMPDEST PUSH1 0x0 PUSH1 0x20 DUP3 ADD SWAP1 POP PUSH2 0x1BBF PUSH1 0x0 DUP4 ADD DUP5 PUSH2 0x1B9B JUMP JUMPDEST SWAP3 SWAP2 POP POP JUMP JUMPDEST PUSH1 0x0 DUP3 DUP3 MSTORE PUSH1 0x20 DUP3 ADD SWAP1 POP SWAP3 SWAP2 POP POP JUMP JUMPDEST PUSH1 0x0 PUSH2 0x1BE1 DUP3 PUSH2 0x17D1 JUMP JUMPDEST PUSH2 0x1BEB DUP2 DUP6 PUSH2 0x1BC5 JUMP JUMPDEST SWAP4 POP PUSH2 0x1BFB DUP2 DUP6 PUSH1 0x20 DUP7 ADD PUSH2 0x17ED JUMP JUMPDEST PUSH2 0x1C04 DUP2 PUSH2 0x1817 JUMP JUMPDEST DUP5 ADD SWAP2 POP POP SWAP3 SWAP2 POP POP JUMP JUMPDEST PUSH2 0x1C18 DUP2 PUSH2 0x1888 JUMP JUMPDEST DUP3 MSTORE POP POP JUMP JUMPDEST PUSH2 0x1C27 DUP2 PUSH2 0x18B8 JUMP JUMPDEST DUP3 MSTORE POP POP JUMP JUMPDEST PUSH1 0x0 PUSH1 0xC0 DUP4 ADD PUSH1 0x0 DUP4 ADD MLOAD DUP5 DUP3 SUB PUSH1 0x0 DUP7 ADD MSTORE PUSH2 0x1C4A DUP3 DUP3 PUSH2 0x1BD6 JUMP JUMPDEST SWAP2 POP POP PUSH1 0x20 DUP4 ADD MLOAD PUSH2 0x1C5F PUSH1 0x20 DUP7 ADD DUP3 PUSH2 0x1C0F JUMP JUMPDEST POP PUSH1 0x40 DUP4 ADD MLOAD PUSH2 0x1C72 PUSH1 0x40 DUP7 ADD DUP3 PUSH2 0x16A9 JUMP JUMPDEST POP PUSH1 0x60 DUP4 ADD MLOAD DUP5 DUP3 SUB PUSH1 0x60 DUP7 ADD MSTORE PUSH2 0x1C8A DUP3 DUP3 PUSH2 0x1BD6 JUMP JUMPDEST SWAP2 POP POP PUSH1 0x80 DUP4 ADD MLOAD PUSH2 0x1C9F PUSH1 0x80 DUP7 ADD DUP3 PUSH2 0x1C1E JUMP JUMPDEST POP PUSH1 0xA0 DUP4 ADD MLOAD PUSH2 0x1CB2 PUSH1 0xA0 DUP7 ADD DUP3 PUSH2 0x16D3 JUMP JUMPDEST POP DUP1 SWAP2 POP POP SWAP3 SWAP2 POP POP JUMP JUMPDEST PUSH1 0x0 PUSH1 0x20 DUP3 ADD SWAP1 POP DUP2 DUP2 SUB PUSH1 0x0 DUP4 ADD MSTORE PUSH2 0x1CD7 DUP2 DUP5 PUSH2 0x1C2D JUMP JUMPDEST SWAP1 POP SWAP3 SWAP2 POP POP JUMP JUMPDEST PUSH32 0x556E617574686F72697A65640000000000000000000000000000000000000000 PUSH1 0x0 DUP3 ADD MSTORE POP JUMP JUMPDEST PUSH1 0x0 PUSH2 0x1D15 PUSH1 0xC DUP4 PUSH2 0x17DC JUMP JUMPDEST SWAP2 POP PUSH2 0x1D20 DUP3 PUSH2 0x1CDF JUMP JUMPDEST PUSH1 0x20 DUP3 ADD SWAP1 POP SWAP2 SWAP1 POP JUMP JUMPDEST PUSH1 0x0 PUSH1 0x20 DUP3 ADD SWAP1 POP DUP2 DUP2 SUB PUSH1 0x0 DUP4 ADD MSTORE PUSH2 0x1D44 DUP2 PUSH2 0x1D08 JUMP JUMPDEST SWAP1 POP SWAP2 SWAP1 POP JUMP JUMPDEST PUSH32 0x43616E206E6F742066696E64206D617463680000000000000000000000000000 PUSH1 0x0 DUP3 ADD MSTORE POP JUMP JUMPDEST PUSH1 0x0 PUSH2 0x1D81 PUSH1 0x12 DUP4 PUSH2 0x17DC JUMP JUMPDEST SWAP2 POP PUSH2 0x1D8C DUP3 PUSH2 0x1D4B JUMP JUMPDEST PUSH1 0x20 DUP3 ADD SWAP1 POP SWAP2 SWAP1 POP JUMP JUMPDEST PUSH1 0x0 PUSH1 0x20 DUP3 ADD SWAP1 POP DUP2 DUP2 SUB PUSH1 0x0 DUP4 ADD MSTORE PUSH2 0x1DB0 DUP2 PUSH2 0x1D74 JUMP JUMPDEST SWAP1 POP SWAP2 SWAP1 POP JUMP JUMPDEST PUSH2 0x1DC0 DUP2 PUSH2 0x1454 JUMP JUMPDEST DUP3 MSTORE POP POP JUMP JUMPDEST PUSH1 0x0 PUSH1 0x60 DUP3 ADD SWAP1 POP PUSH2 0x1DDB PUSH1 0x0 DUP4 ADD DUP7 PUSH2 0x1DB7 JUMP JUMPDEST PUSH2 0x1DE8 PUSH1 0x20 DUP4 ADD DUP6 PUSH2 0x189A JUMP JUMPDEST PUSH2 0x1DF5 PUSH1 0x40 DUP4 ADD DUP5 PUSH2 0x18A9 JUMP JUMPDEST SWAP5 SWAP4 POP POP POP POP JUMP JUMPDEST PUSH32 0x4D6174636820646F6573206E6F74206578697374730000000000000000000000 PUSH1 0x0 DUP3 ADD MSTORE POP JUMP JUMPDEST PUSH1 0x0 PUSH2 0x1E33 PUSH1 0x15 DUP4 PUSH2 0x17DC JUMP JUMPDEST SWAP2 POP PUSH2 0x1E3E DUP3 PUSH2 0x1DFD JUMP JUMPDEST PUSH1 0x20 DUP3 ADD SWAP1 POP SWAP2 SWAP1 POP JUMP JUMPDEST PUSH1 0x0 PUSH1 0x20 DUP3 ADD SWAP1 POP DUP2 DUP2 SUB PUSH1 0x0 DUP4 ADD MSTORE PUSH2 0x1E62 DUP2 PUSH2 0x1E26 JUMP JUMPDEST SWAP1 POP SWAP2 SWAP1 POP JUMP JUMPDEST PUSH32 0x42657420697320636C6F73656400000000000000000000000000000000000000 PUSH1 0x0 DUP3 ADD MSTORE POP JUMP JUMPDEST PUSH1 0x0 PUSH2 0x1E9F PUSH1 0xD DUP4 PUSH2 0x17DC JUMP JUMPDEST SWAP2 POP PUSH2 0x1EAA DUP3 PUSH2 0x1E69 JUMP JUMPDEST PUSH1 0x20 DUP3 ADD SWAP1 POP SWAP2 SWAP1 POP JUMP JUMPDEST PUSH1 0x0 PUSH1 0x20 DUP3 ADD SWAP1 POP DUP2 DUP2 SUB PUSH1 0x0 DUP4 ADD MSTORE PUSH2 0x1ECE DUP2 PUSH2 0x1E92 JUMP JUMPDEST SWAP1 POP SWAP2 SWAP1 POP JUMP JUMPDEST PUSH32 0x42657420616D6F756E74206D7573742062652067726561746572207468616E20 PUSH1 0x0 DUP3 ADD MSTORE PUSH32 0x7A65726F00000000000000000000000000000000000000000000000000000000 PUSH1 0x20 DUP3 ADD MSTORE POP JUMP JUMPDEST PUSH1 0x0 PUSH2 0x1F31 PUSH1 0x24 DUP4 PUSH2 0x17DC JUMP JUMPDEST SWAP2 POP PUSH2 0x1F3C DUP3 PUSH2 0x1ED5 JUMP JUMPDEST PUSH1 0x40 DUP3 ADD SWAP1 POP SWAP2 SWAP1 POP JUMP JUMPDEST PUSH1 0x0 PUSH1 0x20 DUP3 ADD SWAP1 POP DUP2 DUP2 SUB PUSH1 0x0 DUP4 ADD MSTORE PUSH2 0x1F60 DUP2 PUSH2 0x1F24 JUMP JUMPDEST SWAP1 POP SWAP2 SWAP1 POP JUMP JUMPDEST PUSH32 0x4E487B7100000000000000000000000000000000000000000000000000000000 PUSH1 0x0 MSTORE PUSH1 0x11 PUSH1 0x4 MSTORE PUSH1 0x24 PUSH1 0x0 REVERT JUMPDEST PUSH1 0x0 PUSH2 0x1FA1 DUP3 PUSH2 0x1527 JUMP JUMPDEST SWAP2 POP PUSH2 0x1FAC DUP4 PUSH2 0x1527 JUMP JUMPDEST SWAP3 POP DUP3 DUP3 ADD SWAP1 POP DUP1 DUP3 GT ISZERO PUSH2 0x1FC4 JUMPI PUSH2 0x1FC3 PUSH2 0x1F67 JUMP JUMPDEST JUMPDEST SWAP3 SWAP2 POP POP JUMP JUMPDEST PUSH1 0x0 PUSH1 0xA0 DUP3 ADD SWAP1 POP PUSH2 0x1FDF PUSH1 0x0 DUP4 ADD DUP9 PUSH2 0x1DB7 JUMP JUMPDEST PUSH2 0x1FEC PUSH1 0x20 DUP4 ADD DUP8 PUSH2 0x1DB7 JUMP JUMPDEST PUSH2 0x1FF9 PUSH1 0x40 DUP4 ADD DUP7 PUSH2 0x1B9B JUMP JUMPDEST PUSH2 0x2006 PUSH1 0x60 DUP4 ADD DUP6 PUSH2 0x18A9 JUMP JUMPDEST PUSH2 0x2013 PUSH1 0x80 DUP4 ADD DUP5 PUSH2 0x1B55 JUMP JUMPDEST SWAP7 SWAP6 POP POP POP POP POP POP JUMP JUMPDEST PUSH32 0x4E487B7100000000000000000000000000000000000000000000000000000000 PUSH1 0x0 MSTORE PUSH1 0x22 PUSH1 0x4 MSTORE PUSH1 0x24 PUSH1 0x0 REVERT JUMPDEST PUSH1 0x0 PUSH1 0x2 DUP3 DIV SWAP1 POP PUSH1 0x1 DUP3 AND DUP1 PUSH2 0x2064 JUMPI PUSH1 0x7F DUP3 AND SWAP2 POP JUMPDEST PUSH1 0x20 DUP3 LT DUP2 SUB PUSH2 0x2077 JUMPI PUSH2 0x2076 PUSH2 0x201D JUMP JUMPDEST JUMPDEST POP SWAP2 SWAP1 POP JUMP JUMPDEST PUSH32 0x4D6174636820686173206265656E206372656174656400000000000000000000 PUSH1 0x0 DUP3 ADD MSTORE POP JUMP JUMPDEST PUSH1 0x0 PUSH2 0x20B3 PUSH1 0x16 DUP4 PUSH2 0x17DC JUMP JUMPDEST SWAP2 POP PUSH2 0x20BE DUP3 PUSH2 0x207D JUMP JUMPDEST PUSH1 0x20 DUP3 ADD SWAP1 POP SWAP2 SWAP1 POP JUMP JUMPDEST PUSH1 0x0 PUSH1 0x20 DUP3 ADD SWAP1 POP DUP2 DUP2 SUB PUSH1 0x0 DUP4 ADD MSTORE PUSH2 0x20E2 DUP2 PUSH2 0x20A6 JUMP JUMPDEST SWAP1 POP SWAP2 SWAP1 POP JUMP JUMPDEST PUSH1 0x0 DUP2 SWAP1 POP DUP2 PUSH1 0x0 MSTORE PUSH1 0x20 PUSH1 0x0 KECCAK256 SWAP1 POP SWAP2 SWAP1 POP JUMP JUMPDEST PUSH1 0x0 PUSH1 0x20 PUSH1 0x1F DUP4 ADD DIV SWAP1 POP SWAP2 SWAP1 POP JUMP JUMPDEST PUSH1 0x0 DUP3 DUP3 SHL SWAP1 POP SWAP3 SWAP2 POP POP JUMP JUMPDEST PUSH1 0x0 PUSH1 0x8 DUP4 MUL PUSH2 0x214B PUSH32 0xFFFFFFFFFFFFFFFFFFFFFFFFFFFFFFFFFFFFFFFFFFFFFFFFFFFFFFFFFFFFFFFF DUP3 PUSH2 0x210E JUMP JUMPDEST PUSH2 0x2155 DUP7 DUP4 PUSH2 0x210E JUMP JUMPDEST SWAP6 POP DUP1 NOT DUP5 AND SWAP4 POP DUP1 DUP7 AND DUP5 OR SWAP3 POP POP POP SWAP4 SWAP3 POP POP POP JUMP JUMPDEST PUSH1 0x0 DUP2 SWAP1 POP SWAP2 SWAP1 POP JUMP JUMPDEST PUSH1 0x0 PUSH2 0x2192 PUSH2 0x218D PUSH2 0x2188 DUP5 PUSH2 0x1527 JUMP JUMPDEST PUSH2 0x216D JUMP JUMPDEST PUSH2 0x1527 JUMP JUMPDEST SWAP1 POP SWAP2 SWAP1 POP JUMP JUMPDEST PUSH1 0x0 DUP2 SWAP1 POP SWAP2 SWAP1 POP JUMP JUMPDEST PUSH2 0x21AC DUP4 PUSH2 0x2177 JUMP JUMPDEST PUSH2 0x21C0 PUSH2 0x21B8 DUP3 PUSH2 0x2199 JUMP JUMPDEST DUP5 DUP5 SLOAD PUSH2 0x211B JUMP JUMPDEST DUP3 SSTORE POP POP POP POP JUMP JUMPDEST PUSH1 0x0 SWAP1 JUMP JUMPDEST PUSH2 0x21D5 PUSH2 0x21C8 JUMP JUMPDEST PUSH2 0x21E0 DUP2 DUP5 DUP5 PUSH2 0x21A3 JUMP JUMPDEST POP POP POP JUMP JUMPDEST JUMPDEST DUP2 DUP2 LT ISZERO PUSH2 0x2204 JUMPI PUSH2 0x21F9 PUSH1 0x0 DUP3 PUSH2 0x21CD JUMP JUMPDEST PUSH1 0x1 DUP2 ADD SWAP1 POP PUSH2 0x21E6 JUMP JUMPDEST POP POP JUMP JUMPDEST PUSH1 0x1F DUP3 GT ISZERO PUSH2 0x2249 JUMPI PUSH2 0x221A DUP2 PUSH2 0x20E9 JUMP JUMPDEST PUSH2 0x2223 DUP5 PUSH2 0x20FE JUMP JUMPDEST DUP2 ADD PUSH1 0x20 DUP6 LT ISZERO PUSH2 0x2232 JUMPI DUP2 SWAP1 POP JUMPDEST PUSH2 0x2246 PUSH2 0x223E DUP6 PUSH2 0x20FE JUMP JUMPDEST DUP4 ADD DUP3 PUSH2 0x21E5 JUMP JUMPDEST POP POP JUMPDEST POP POP POP JUMP JUMPDEST PUSH1 0x0 DUP3 DUP3 SHR SWAP1 POP SWAP3 SWAP2 POP POP JUMP JUMPDEST PUSH1 0x0 PUSH2 0x226C PUSH1 0x0 NOT DUP5 PUSH1 0x8 MUL PUSH2 0x224E JUMP JUMPDEST NOT DUP1 DUP4 AND SWAP2 POP POP SWAP3 SWAP2 POP POP JUMP JUMPDEST PUSH1 0x0 PUSH2 0x2285 DUP4 DUP4 PUSH2 0x225B JUMP JUMPDEST SWAP2 POP DUP3 PUSH1 0x2 MUL DUP3 OR SWAP1 POP SWAP3 SWAP2 POP POP JUMP JUMPDEST PUSH2 0x229E DUP3 PUSH2 0x17D1 JUMP JUMPDEST PUSH8 0xFFFFFFFFFFFFFFFF DUP2 GT ISZERO PUSH2 0x22B7 JUMPI PUSH2 0x22B6 PUSH2 0x195F JUMP JUMPDEST JUMPDEST PUSH2 0x22C1 DUP3 SLOAD PUSH2 0x204C JUMP JUMPDEST PUSH2 0x22CC DUP3 DUP3 DUP6 PUSH2 0x2208 JUMP JUMPDEST PUSH1 0x0 PUSH1 0x20 SWAP1 POP PUSH1 0x1F DUP4 GT PUSH1 0x1 DUP2 EQ PUSH2 0x22FF JUMPI PUSH1 0x0 DUP5 ISZERO PUSH2 0x22ED JUMPI DUP3 DUP8 ADD MLOAD SWAP1 POP JUMPDEST PUSH2 0x22F7 DUP6 DUP3 PUSH2 0x2279 JUMP JUMPDEST DUP7 SSTORE POP PUSH2 0x235F JUMP JUMPDEST PUSH1 0x1F NOT DUP5 AND PUSH2 0x230D DUP7 PUSH2 0x20E9 JUMP JUMPDEST PUSH1 0x0 JUMPDEST DUP3 DUP2 LT ISZERO PUSH2 0x2335 JUMPI DUP5 DUP10 ADD MLOAD DUP3 SSTORE PUSH1 0x1 DUP3 ADD SWAP2 POP PUSH1 0x20 DUP6 ADD SWAP5 POP PUSH1 0x20 DUP2 ADD SWAP1 POP PUSH2 0x2310 JUMP JUMPDEST DUP7 DUP4 LT ISZERO PUSH2 0x2352 JUMPI DUP5 DUP10 ADD MLOAD PUSH2 0x234E PUSH1 0x1F DUP10 AND DUP3 PUSH2 0x225B JUMP JUMPDEST DUP4 SSTORE POP JUMPDEST PUSH1 0x1 PUSH1 0x2 DUP9 MUL ADD DUP9 SSTORE POP POP POP JUMPDEST POP POP POP POP POP POP JUMP JUMPDEST PUSH1 0x0 PUSH1 0x80 DUP3 ADD SWAP1 POP PUSH2 0x237C PUSH1 0x0 DUP4 ADD DUP8 PUSH2 0x1DB7 JUMP JUMPDEST DUP2 DUP2 SUB PUSH1 0x20 DUP4 ADD MSTORE PUSH2 0x238E DUP2 DUP7 PUSH2 0x1828 JUMP JUMPDEST SWAP1 POP DUP2 DUP2 SUB PUSH1 0x40 DUP4 ADD MSTORE PUSH2 0x23A2 DUP2 DUP6 PUSH2 0x1828 JUMP JUMPDEST SWAP1 POP PUSH2 0x23B1 PUSH1 0x60 DUP4 ADD DUP5 PUSH2 0x18C8 JUMP JUMPDEST SWAP6 SWAP5 POP POP POP POP POP JUMP JUMPDEST PUSH32 0x42657420646F6573206E6F742065786973740000000000000000000000000000 PUSH1 0x0 DUP3 ADD MSTORE POP JUMP JUMPDEST PUSH1 0x0 PUSH2 0x23F0 PUSH1 0x12 DUP4 PUSH2 0x17DC JUMP JUMPDEST SWAP2 POP PUSH2 0x23FB DUP3 PUSH2 0x23BA JUMP JUMPDEST PUSH1 0x20 DUP3 ADD SWAP1 POP SWAP2 SWAP1 POP JUMP JUMPDEST PUSH1 0x0 PUSH1 0x20 DUP3 ADD SWAP1 POP DUP2 DUP2 SUB PUSH1 0x0 DUP4 ADD MSTORE PUSH2 0x241F DUP2 PUSH2 0x23E3 JUMP JUMPDEST SWAP1 POP SWAP2 SWAP1 POP JUMP JUMPDEST PUSH32 0x4D6174636820646F6573206E6F74206578697374000000000000000000000000 PUSH1 0x0 DUP3 ADD MSTORE POP JUMP JUMPDEST PUSH1 0x0 PUSH2 0x245C PUSH1 0x14 DUP4 PUSH2 0x17DC JUMP JUMPDEST SWAP2 POP PUSH2 0x2467 DUP3 PUSH2 0x2426 JUMP JUMPDEST PUSH1 0x20 DUP3 ADD SWAP1 POP SWAP2 SWAP1 POP JUMP JUMPDEST PUSH1 0x0 PUSH1 0x20 DUP3 ADD SWAP1 POP DUP2 DUP2 SUB PUSH1 0x0 DUP4 ADD MSTORE PUSH2 0x248B DUP2 PUSH2 0x244F JUMP JUMPDEST SWAP1 POP SWAP2 SWAP1 POP JUMP JUMPDEST PUSH32 0x4D6174636820686173206E6F742066696E697368656400000000000000000000 PUSH1 0x0 DUP3 ADD MSTORE POP JUMP JUMPDEST PUSH1 0x0 PUSH2 0x24C8 PUSH1 0x16 DUP4 PUSH2 0x17DC JUMP JUMPDEST SWAP2 POP PUSH2 0x24D3 DUP3 PUSH2 0x2492 JUMP JUMPDEST PUSH1 0x20 DUP3 ADD SWAP1 POP SWAP2 SWAP1 POP JUMP JUMPDEST PUSH1 0x0 PUSH1 0x20 DUP3 ADD SWAP1 POP DUP2 DUP2 SUB PUSH1 0x0 DUP4 ADD MSTORE PUSH2 0x24F7 DUP2 PUSH2 0x24BB JUMP JUMPDEST SWAP1 POP SWAP2 SWAP1 POP JUMP JUMPDEST PUSH32 0x20596F75206C6F73740000000000000000000000000000000000000000000000 PUSH1 0x0 DUP3 ADD MSTORE POP JUMP JUMPDEST PUSH1 0x0 PUSH2 0x2534 PUSH1 0x9 DUP4 PUSH2 0x17DC JUMP JUMPDEST SWAP2 POP PUSH2 0x253F DUP3 PUSH2 0x24FE JUMP JUMPDEST PUSH1 0x20 DUP3 ADD SWAP1 POP SWAP2 SWAP1 POP JUMP JUMPDEST PUSH1 0x0 PUSH1 0x20 DUP3 ADD SWAP1 POP DUP2 DUP2 SUB PUSH1 0x0 DUP4 ADD MSTORE PUSH2 0x2563 DUP2 PUSH2 0x2527 JUMP JUMPDEST SWAP1 POP SWAP2 SWAP1 POP JUMP JUMPDEST PUSH1 0x0 PUSH2 0x2575 DUP3 PUSH2 0x1527 JUMP JUMPDEST SWAP2 POP PUSH2 0x2580 DUP4 PUSH2 0x1527 JUMP JUMPDEST SWAP3 POP DUP3 DUP3 MUL PUSH2 0x258E DUP2 PUSH2 0x1527 JUMP JUMPDEST SWAP2 POP DUP3 DUP3 DIV DUP5 EQ DUP4 ISZERO OR PUSH2 0x25A5 JUMPI PUSH2 0x25A4 PUSH2 0x1F67 JUMP JUMPDEST JUMPDEST POP SWAP3 SWAP2 POP POP JUMP JUMPDEST PUSH32 0x4E487B7100000000000000000000000000000000000000000000000000000000 PUSH1 0x0 MSTORE PUSH1 0x12 PUSH1 0x4 MSTORE PUSH1 0x24 PUSH1 0x0 REVERT JUMPDEST PUSH1 0x0 PUSH2 0x25E6 DUP3 PUSH2 0x1527 JUMP JUMPDEST SWAP2 POP PUSH2 0x25F1 DUP4 PUSH2 0x1527 JUMP JUMPDEST SWAP3 POP DUP3 PUSH2 0x2601 JUMPI PUSH2 0x2600 PUSH2 0x25AC JUMP JUMPDEST JUMPDEST DUP3 DUP3 DIV SWAP1 POP SWAP3 SWAP2 POP POP JUMP JUMPDEST PUSH1 0x0 PUSH1 0x40 DUP3 ADD SWAP1 POP PUSH2 0x2621 PUSH1 0x0 DUP4 ADD DUP6 PUSH2 0x1B9B JUMP JUMPDEST PUSH2 0x262E PUSH1 0x20 DUP4 ADD DUP5 PUSH2 0x1B55 JUMP JUMPDEST SWAP4 SWAP3 POP POP POP JUMP JUMPDEST PUSH2 0x263E DUP2 PUSH2 0x16C7 JUMP JUMPDEST DUP2 EQ PUSH2 0x2649 JUMPI PUSH1 0x0 DUP1 REVERT JUMPDEST POP JUMP JUMPDEST PUSH1 0x0 DUP2 MLOAD SWAP1 POP PUSH2 0x265B DUP2 PUSH2 0x2635 JUMP JUMPDEST SWAP3 SWAP2 POP POP JUMP JUMPDEST PUSH1 0x0 PUSH1 0x20 DUP3 DUP5 SUB SLT ISZERO PUSH2 0x2677 JUMPI PUSH2 0x2676 PUSH2 0x144A JUMP JUMPDEST JUMPDEST PUSH1 0x0 PUSH2 0x2685 DUP5 DUP3 DUP6 ADD PUSH2 0x264C JUMP JUMPDEST SWAP2 POP POP SWAP3 SWAP2 POP POP JUMP JUMPDEST PUSH1 0x0 PUSH1 0x60 DUP3 ADD SWAP1 POP PUSH2 0x26A3 PUSH1 0x0 DUP4 ADD DUP7 PUSH2 0x1DB7 JUMP JUMPDEST PUSH2 0x26B0 PUSH1 0x20 DUP4 ADD DUP6 PUSH2 0x1B9B JUMP JUMPDEST PUSH2 0x26BD PUSH1 0x40 DUP4 ADD DUP5 PUSH2 0x1B55 JUMP JUMPDEST SWAP5 SWAP4 POP POP POP POP JUMP INVALID LOG2 PUSH5 0x6970667358 0x22 SLT KECCAK256 0xE6 DUP3 0xB9 PUSH26 0x721FB2C38D3C4368816EA9B931928B4C6A0B521D90C236CFF74A DUP12 0xCB PUSH5 0x736F6C6343 STOP ADDMOD XOR STOP CALLER "
        },
        "methodIdentifiers": {
          "admin()": "f851a440",
          "claimReward(bytes32)": "f5414023",
          "createBet(bytes32,bytes32,uint8,uint256)": "0a6dc6e0",
          "createMatch(bytes32,string,string,uint32)": "cad7622c",
          "getBet(bytes32)": "37e8c09e",
          "getMatch(bytes32)": "fcc6077d",
          "getOdds(bytes32)": "e8ceea2f",
          "matches(bytes32)": "9fe9ada3",
          "setAdmin(address)": "704b6c02",
          "updateMatch(bytes32,uint8,uint8)": "09d3bf13"
        }
      }
    }
  }
}